:020000040800F2
:1000000000000120DD2C00083522000837220008FE
:10001000392200083B2200083D22000800000000B1
:100020000000000000000000000000003F22000867
:100030004122000800000000432200084522000879
:10004000252D0008252D0008252D0008252D000848
:10005000252D0008252D0008252D0008252D000838
:10006000252D0008252D0008252D0008252D000828
:10007000252D0008252D0008252D0008252D000818
:10008000252D0008252D0008252D0008252D000808
:10009000252D0008252D0008252D0008252D0008F8
:1000A0004D2200085D2200086D2200087D22000814
:1000B0008D2200089D220008AD220008252D000891
:1000C000252D0008252D0008252D0008252D0008C8
:1000D000BD220008CD220008DD220008252D0008E1
:1000E000252D0008252D0008252D0008ED220008EB
:1000F000252D0008252D0008252D0008252D000898
:10010000252D0008252D0008FD220008252D0008BA
:10011000252D0008252D00080D2300081D230008AB
:10012000252D0008252D0008252D0008252D000867
:1001300000000000000000000000000000000000BF
:1001400000000000000000000000000000000000AF
:10015000000000000000000000000000000000009F
:10016000000000000000000000000000000000008F
:10017000000000000000000000000000000000007F
:10018000000000000000000000000000000000006F
:10019000000000000000000000000000000000005F
:1001A000000000000000000000000000000000004F
:1001B000000000000000000000000000000000003F
:1001C000000000000000000000000000000000002F
:1001D000000000000000000000000000000000001F
:0401E0005FF8E0F1F3
:1001E80010B5054C237833B9044B13B10448AFF369
:1001F80000800123237010BDC00A00200000000009
:100208003417010808B5034B1BB103490348AFF382
:10021800008008BD00000000C40A0020341701084F
:1002280081F0004102E000BF83F0004330B54FEA9F
:1002380041044FEA430594EA050F08BF90EA020F0C
:100248001FBF54EA000C55EA020C7FEA645C7FEA9F
:10025800655C00F0E2804FEA5454D4EB5555B8BFC2
:100268006D420CDD2C4480EA020281EA030382EA33
:10027800000083EA010180EA020281EA0303362DC5
:1002880088BF30BD11F0004F4FEA01314FF4801C98
:100298004CEA113102D0404261EB410113F0004FAA
:1002A8004FEA03334CEA133302D0524263EB430361
:1002B80094EA050F00F0A780A4F10104D5F1200EFF
:1002C8000DDB02FA0EFC22FA05F2801841F100015A
:1002D80003FA0EF2801843FA05F359410EE0A5F12E
:1002E80020050EF1200E012A03FA0EFC28BF4CF05F
:1002F800020C43FA05F3C01851EBE37101F0004515
:1003080007D54FF0000EDCF1000C7EEB00006EEB21
:100318000101B1F5801F1BD3B1F5001F0CD34908AB
:100328005FEA30004FEA3C0C04F101044FEA445202
:1003380012F5800F80F09A80BCF1004F08BF5FEA89
:10034800500C50F1000041EB045141EA050130BD69
:100358005FEA4C0C404141EB0101013C28BFB1F57B
:10036800801FE9D291F0000F04BF01460020B1FAC6
:1003780081F308BF2033A3F10B03B3F120020CDA99
:100388000C3208DD02F1140CC2F10C0201FA0CF077
:1003980021FA02F10CE002F11402D8BFC2F1200CDC
:1003A80001FA02F120FA0CFCDCBF41EA0C01904092
:1003B800E41AA2BF01EB0451294330BD6FEA0404DB
:1003C8001F3C1CDA0C340EDC04F11404C4F12002C6
:1003D80020FA04F001FA02F340EA030021FA04F3D8
:1003E80045EA030130BDC4F10C04C4F1200220FA2F
:1003F80002F001FA04F340EA0300294630BD21FA6D
:1004080004F0294630BD94F0000F83F4801306BF32
:1004180081F480110134013D4EE77FEA645C18BF26
:100428007FEA655C29D094EA050F08BF90EA020FBD
:1004380005D054EA000C04BF1946104630BD91EAB5
:10044800030F1EBF0021002030BD5FEA545C05D1B8
:100458004000494128BF41F0004130BD14F58004F7
:100468003CBF01F5801130BD01F0004545F0FE416B
:1004780041F470014FF0000030BD7FEA645C1ABFA0
:10048800194610467FEA655C1CBF0B46024650EAD7
:10049800013406BF52EA033591EA030F41F4002103
:1004A80030BD00BF90F0000F04BF0021704730B589
:1004B8004FF4806404F132044FF000054FF000015E
:1004C80050E700BF90F0000F04BF0021704730B51F
:1004D8004FF4806404F1320410F0004548BF4042F4
:1004E8004FF000013EE700BF42004FEAE2014FEA49
:1004F80031014FEA02701FBF12F07F4393F07F4F24
:1005080081F06051704732F07F4208BF704793F026
:100518007F4F04BF41F40021704730B54FF4607439
:1005280001F0004521F000411CE700BF50EA01023C
:1005380008BF704730B54FF000050AE050EA0102E5
:1005480008BF704730B511F0004502D5404261EB55
:1005580041014FF4806404F132045FEA915C3FF496
:10056800D8AE4FF003025FEADC0C18BF03325FEA33
:10057800DC0C18BF033202EBDC02C2F1200300FAE4
:1005880003FC20FA02F001FA03FE40EA0E0021FA09
:1005980002F11444BDE600BF70B54FF0FF0C4CF4F7
:1005A800E06C1CEA11541DBF1CEA135594EA0C0FA9
:1005B80095EA0C0F00F0DEF82C4481EA030621EAE4
:1005C8004C5123EA4C5350EA013518BF52EA03351F
:1005D80041F4801143F4801338D0A0FB02CE4FF0D1
:1005E8000005E1FB02E506F00042E0FB03E54FF001
:1005F8000006E1FB03569CF0000F18BF4EF0010EF9
:10060800A4F1FF04B6F5007F64F5407404D25FEAF4
:100618004E0E6D4146EB060642EAC62141EA5551A7
:100628004FEAC52040EA5E504FEACE2EB4F1FD0CE9
:1006380088BFBCF5E06F1ED8BEF1004F08BF5FEA67
:10064800500E50F1000041EB045170BD06F0004619
:1006580046EA010140EA020081EA0301B4EB5C04C6
:10066800C2BFD4EB0C0541EA045170BD41F48011BE
:100678004FF0000E013C00F3AB8014F1360FDEBFE3
:10068800002001F0004170BDC4F10004203C35DABF
:100698000C341BDC04F11404C4F1200500FA05F342
:1006A80020FA04F001FA05F240EA020001F00042E3
:1006B80021F0004110EBD37021FA04F642EB060159
:1006C8005EEA430E08BF20EAD37070BDC4F10C0483
:1006D800C4F1200500FA04F320FA05F001FA04F247
:1006E80040EA020001F0004110EBD37041F1000133
:1006F8005EEA430E08BF20EAD37070BDC4F120053E
:1007080000FA05F24EEA020E20FA04F301FA05F2A5
:1007180043EA020321FA04F001F0004121FA04F24D
:1007280020EA020000EBD3705EEA430E08BF20EA1D
:10073800D37070BD94F0000F0FD101F00046400057
:1007480041EB010111F4801F08BF013CF7D041EAD9
:10075800060195F0000F18BF704703F000465200DD
:1007680043EB030313F4801F08BF013DF7D043EAAE
:100778000603704794EA0C0F0CEA135518BF95EA64
:100788000C0F0CD050EA410618BF52EA4306D1D1EB
:1007980081EA030101F000414FF0000070BD50EA0A
:1007A800410606BF1046194652EA430619D094EA94
:1007B8000C0F02D150EA013613D195EA0C0F05D17E
:1007C80052EA03361CBF104619460AD181EA0301D2
:1007D80001F0004141F0FE4141F470014FF000008A
:1007E80070BD41F0FE4141F4780170BD70B54FF025
:1007F800FF0C4CF4E06C1CEA11541DBF1CEA1355A5
:1008080094EA0C0F95EA0C0F00F0A7F8A4EB050486
:1008180081EA030E52EA03354FEA013100F088807D
:100828004FEA03334FF0805545EA131343EA126346
:100838004FEA022245EA111545EA10654FEA0026FB
:100848000EF000419D4208BF964244F1FD0404F5B4
:10085800407402D25B084FEA3202B61A65EB030510
:100868005B084FEA32024FF480104FF4002CB6EBCD
:10087800020E75EB030E22BFB61A754640EA0C004D
:100888005B084FEA3202B6EB020E75EB030E22BF8D
:10089800B61A754640EA5C005B084FEA3202B6EBCE
:1008A800020E75EB030E22BFB61A754640EA9C008D
:1008B8005B084FEA3202B6EB020E75EB030E22BF5D
:1008C800B61A754640EADC0055EA060E18D04FEA1B
:1008D800051545EA16754FEA06164FEAC30343EABB
:1008E80052734FEAC2025FEA1C1CC0D111F4801F88
:1008F8000BD141EA00014FF000004FF0004CB6E781
:1009080011F4801F04BF01430020B4F1FD0C88BF1F
:10091800BCF5E06F3FF6AFAEB5EB030C04BFB6EB2A
:10092800020C5FEA500C50F1000041EB045170BD1D
:100938000EF0004E4EEA113114EB5C04C2BFD4EB4A
:100948000C0541EA045170BD41F480114FF0000ECE
:10095800013C90E645EA060E8DE60CEA135594EA4A
:100968000C0F08BF95EA0C0F3FF43BAF94EA0C0F4D
:100978000AD150EA01347FF434AF95EA0C0F7FF4C2
:1009880025AF104619462CE795EA0C0F06D152EA16
:1009980003353FF4FDAE1046194622E750EA4106FA
:1009A80018BF52EA43067FF4C5AE50EA41047FF40B
:1009B8000DAF52EA43057FF4EBAE12E74FF0FF3C70
:1009C80006E000BF4FF0010C02E000BF4FF0010C41
:1009D8004DF804CD4FEA410C7FEA6C5C4FEA430CBA
:1009E80018BF7FEA6C5C1BD001B050EA410C0CBF09
:1009F80052EA430C91EA030F02BF90EA020F00206B
:100A0800704710F1000F91EA030F58BF994208BFD1
:100A180090422CBFD8176FEAE37040F0010070478E
:100A28004FEA410C7FEA6C5C02D150EA013C07D1E5
:100A38004FEA430C7FEA6C5CD6D152EA033CD3D030
:100A48005DF8040B704700BF8446104662468C462A
:100A58001946634600E000BF01B5FFF7B7FF00285D
:100A680048BF10F1000F01BD4DF808EDFFF7F4FF86
:100A78000CBF012000205DF808FB00BF4DF808ED11
:100A8800FFF7EAFF34BF012000205DF808FB00BF34
:100A98004DF808EDFFF7E0FF94BF012000205DF856
:100AA80008FB00BF4DF808EDFFF7CEFF94BF01200B
:100AB80000205DF808FB00BF4DF808EDFFF7C4FF04
:100AC80034BF012000205DF808FB00BF4FEA410257
:100AD80012F5001215D211D56FF47873B3EB625288
:100AE80012D94FEAC12343F0004343EA505311F0AF
:100AF800004F23FA02F018BF404270474FF0000041
:100B0800704750EA013005D111F0004008BF6FF07E
:100B1800004070474FF00000704700BF4FEA4102A5
:100B2800B2F1E04324BFB3F5001CDCF1FE5C0DD943
:100B380001F0004C4FEAC0024CEA5070B2F1004F8D
:100B480040EB830008BF20F00100704711F0804F90
:100B580021D113F13872BCBF01F00040704741F455
:100B680080114FEA5252C2F11802C2F1200C10FA59
:100B78000CF320FA02F018BF40F001004FEAC1233D
:100B88004FEAD32303FA0CFC40EA0C0023FA02F3E1
:100B98004FEA4303CCE77FEA625307D150EA0133B7
:100BA8001EBF4FF0FE4040F44000704701F0004087
:100BB80040F0FE4040F40000704700BF80F0004065
:100BC80002E000BF81F0004142001FBF5FEA41031D
:100BD80092EA030F7FEA226C7FEA236C6AD04FEA1D
:100BE8001262D2EB1363C1BFD21841404840414062
:100BF800B8BF5B42192B88BF704710F0004F40F414
:100C0800000020F07F4018BF404211F0004F41F42F
:100C1800000121F07F4118BF494292EA030F3FD0FB
:100C2800A2F1010241FA03FC10EB0C00C3F120030E
:100C380001FA03F100F0004302D5494260EB40009D
:100C4800B0F5000F13D3B0F1807F06D340084FEA08
:100C5800310102F10102FE2A51D2B1F1004F40EBFD
:100C6800C25008BF20F0010040EA03007047490065
:100C780040EB0000013A28BFB0F5000FEDD2B0FA02
:100C880080FCACF1080CB2EB0C0200FA0CF0AABF25
:100C980000EBC25052421843BCBFD04018437047C3
:100CA80092F0000F81F4000106BF80F400000132C9
:100CB800013BB5E74FEA41037FEA226C18BF7FEAA0
:100CC800236C21D092EA030F04D092F0000F08BFE2
:100CD8000846704790EA010F1CBF0020704712F0C9
:100CE8007F4F04D1400028BF40F00040704712F108
:100CF80000723CBF00F50000704700F0004343F06D
:100D0800FE4040F4000070477FEA226216BF0846A2
:100D18007FEA23630146420206BF5FEA412390EA65
:100D2800010F40F4800070474FF0000304E000BF5B
:100D380010F0004348BF40425FEA000C08BF70470C
:100D480043F0964301464FF000001CE050EA0102D0
:100D580008BF70474FF000030AE000BF50EA0102E5
:100D680008BF704711F0004302D5404261EB4101D2
:100D78005FEA010C02BF84460146002043F0B643F7
:100D880008BFA3F18053A3F50003BCFA8CF2083A1C
:100D9800A3EBC25310DB01FA02FC634400FA02FC25
:100DA800C2F12002BCF1004F20FA02F243EB02002C
:100DB80008BF20F00100704702F1200201FA02FC8E
:100DC800C2F1200250EA4C0021FA02F243EB020081
:100DD80008BF20EADC7070474FF0FF0C1CEAD052C5
:100DE8001EBF1CEAD15392EA0C0F93EA0C0F6FD086
:100DF8001A4480EA010C400218BF5FEA41211ED064
:100E08004FF0006343EA501043EA5111A0FB01314F
:100E18000CF00040B1F5000F3EBF490041EAD37124
:100E28005B0040EA010062F17F02FD2A1DD8B3F1A0
:100E3800004F40EBC25008BF20F00100704790F00F
:100E4800000F0CF0004C08BF49024CEA502040EA61
:100E580051207F3AC2BFD2F1FF0340EAC250704727
:100E680040F400004FF00003013A5DDC12F1190F65
:100E7800DCBF00F000407047C2F10002410021FAD7
:100E880002F1C2F1200200FA02FC5FEA310040F1EF
:100E9800000053EA4C0308BF20EADC70704792F068
:100EA800000F00F0004C02BF400010F4000F013AA0
:100EB800F9D040EA0C0093F0000F01F0004C02BF9B
:100EC800490011F4000F013BF9D041EA0C018FE70A
:100ED8000CEAD15392EA0C0F18BF93EA0C0F0AD010
:100EE80030F0004C18BF31F0004CD8D180EA010036
:100EF80000F00040704790F0000F17BF90F0004FCF
:100F0800084691F0000F91F0004F14D092EA0C0FB0
:100F180001D142020FD193EA0C0F03D14B0218BF43
:100F2800084608D180EA010000F0004040F0FE4089
:100F380040F40000704740F0FE4040F44000704725
:100F48004FF0FF0C1CEAD0521EBF1CEAD15392EAA4
:100F58000C0F93EA0C0F69D0A2EB030280EA010C94
:100F680049024FEA402037D04FF0805343EA11112D
:100F780043EA10130CF000408B4238BF5B0042F18B
:100F88007D024FF4000C8B4224BF5B1A40EA0C0030
:100F9800B3EB510F24BFA3EB510340EA5C00B3EB62
:100FA800910F24BFA3EB910340EA9C00B3EBD10F50
:100FB80024BFA3EBD10340EADC001B0118BF5FEAA2
:100FC8001C1CE0D1FD2A3FF650AF8B4240EBC250CB
:100FD80008BF20F0010070470CF0004C4CEA50208C
:100FE8007F32C2BFD2F1FF0340EAC250704740F4DB
:100FF80000004FF00003013A37E792F0000F00F0CD
:10100800004C02BF400010F4000F013AF9D040EA4A
:101018000C0093F0000F01F0004C02BF490011F4DE
:10102800000F013BF9D041EA0C0195E70CEAD153D6
:1010380092EA0C0F08D142027FF47DAF93EA0C0FBD
:101048007FF470AF084676E793EA0C0F04D14B02A1
:101058003FF44CAF08466EE730F0004C18BF31F053
:10106800004CCAD130F000427FF45CAF31F000434D
:101078007FF43CAF5FE700BF4FF0FF3C06E000BFE6
:101088004FF0010C02E000BF4FF0010C4DF804CD09
:101098004FEA40024FEA41037FEA226C18BF7FEA19
:1010A800236C11D001B052EA530C18BF90EA010F1B
:1010B80058BFB2EB030088BFC81738BF6FEAE170AA
:1010C80018BF40F0010070477FEA226C02D15FEA46
:1010D800402C05D17FEA236CE4D15FEA412CE1D0B2
:1010E8005DF8040B704700BF844608466146FFE779
:1010F8000FB5FFF7C9FF002848BF10F1000F0FBD5B
:101108004DF808EDFFF7F4FF0CBF012000205DF853
:1011180008FB00BF4DF808EDFFF7EAFF34BF0120D8
:1011280000205DF808FB00BF4DF808EDFFF7E0FF71
:1011380094BF012000205DF808FB00BF4DF808EDC2
:10114800FFF7D2FF94BF012000205DF808FB00BF25
:101158004DF808EDFFF7C8FF34BF012000205DF807
:1011680008FB00BF4FEA4002B2F1FE4F0FD34FF029
:101178009E03B3EB12620DD94FEA002343F00043FC
:1011880010F0004F23FA02F018BF404270474FF0AA
:101198000000704712F1610F01D1420205D110F031
:1011A800004008BF6FF0004070474FF000007047E4
:1011B80042000ED2B2F1FE4F0BD34FF09E03B3EBB9
:1011C800126209D44FEA002343F0004323FA02F0E5
:1011D80070474FF00000704712F1610F01D14202D1
:1011E80002D14FF0FF3070474FF00000704700BF4A
:1011F8007BB972B90029BEBF00204FF0004106E05C
:1012080008BF00281CBF6FF000414FF0FF3000F00E
:10121800A9B9ADF1080C6DE904CE002909DB002B52
:101228001ADB00F035F8DDF804E0DDE9022304B04C
:101238007047404261EB4101002B1BDB00F028F8AE
:10124800DDF804E0DDE9022304B0404261EB41012E
:10125800524263EB43037047524263EB430300F08F
:1012680017F8DDF804E0DDE9022304B0404261EB41
:1012780041017047524263EB430300F009F8DDF87F
:1012880004E0DDE9022304B0524263EB43037047F4
:101298002DE9F047089E0D4604468846002B4DD19F
:1012A8008A42944668D9B2FA82F252B101FA02F33C
:1012B800C2F1200120FA01F10CFA02FC41EA03080C
:1012C80094404FEA1C41B8FBF1F71FFA8CFE01FB72
:1012D800178807FB0EF0230C43EA084398420AD903
:1012E8001CEB030307F1FF3580F01E81984240F2A2
:1012F8001B81023F63441B1AB3FBF1F001FB10335F
:1013080000FB0EFEA4B244EA0344A6450AD91CEB2E
:10131800040400F1FF3380F00981A64540F20681FC
:10132800644402380021A4EB0E0440EA07401EB1D1
:101338000023D440C6E90043BDE8F0878B4208D9B2
:10134800002E00F0EE800021C6E900050846BDE841
:10135800F087B3FA83F100294AD1AB4202D3824223
:1013680000F2FC80841A65EB030301209846002EE6
:10137800E2D0C6E90048DFE702B9FFDEB2FA82F23E
:10138800002A40F09180A1EB0C0001214FEA1C4794
:101398001FFA8CFEB0FBF7F307FB1300250C45EA98
:1013A80000450EFB03F0A84208D91CEB050503F124
:1013B800FF3802D2A84200F2CE8043462D1AB5FB70
:1013C800F7F007FB10550EFB00FEA4B244EA0544F3
:1013D800A64508D91CEB040400F1FF3502D2A64546
:1013E80000F2B6802846A4EB0E0440EA03409EE7CC
:1013F800C1F120078B4022FA07FC4CEA030C25FABE
:1014080007FA4FEA1C49BAFBF9F820FA07F309FB77
:1014180018AA8D401FFA8CFE1D4300FA01F308FB41
:101428000EF02C0C44EA0A44A04202FA01F20BD94D
:101438001CEB040408F1FF3A80F08880A04240F2D7
:101448008580A8F102086444241AB4FBF9F009FB6A
:10145800104400FB0EFEADB245EA0444A64508D987
:101468001CEB040400F1FF356CD2A6456AD902389A
:10147800644440EA0840A0FB0295A4EB0E04AC4289
:10148800C846AE4656D353D0002E69D0B3EB0802F7
:1014980064EB0E0422FA01F304FA07F71F43CC4069
:1014A800C6E90074002147E70CFA02FCC2F12001EA
:1014B80025FA01F34FEA1C4720FA01F195400D4344
:1014C800B3FBF7F107FB11331FFA8CFE280C40EA37
:1014D800034001FB0EF3834204FA02F408D91CEB23
:1014E800000001F1FF382FD283422DD90239604420
:1014F800C01AB0FBF7F307FB1300ADB245EA00458D
:1015080003FB0EF0A84208D91CEB050503F1FF38D0
:1015180016D2A84214D9023B6544281A43EA01416D
:1015280038E73146304607E72F46E4E61846F9E63D
:101538004B45A9D2B9EB020865EB0C0E0138A3E7BD
:101548004346EAE7284694E74146D1E7D0467BE799
:101558006444023847E7023B65442FE7084606E73C
:101568003146E9E6704700BF844641EA000313F0BC
:10157800030349D1403A23D30B6803604B684360A7
:101588008B688360CB68C3600B6903614B694361F7
:101598008B698361CB69C3610B6A03624B6A4362DF
:1015A8008B6A8362CB6AC3620B6B03634B6B4363C7
:1015B8008B6B8363CB6BC36340304031403ADBD2E3
:1015C80030320BD30B6803604B6843608B688360D1
:1015D800CB68C36010301031103AF3D20C3205D307
:1015E80051F8043B40F8043B043AF9D2043208D0DD
:1015F800D2071CBF11F8013B00F8013B01D30B884F
:1016080003806046704700BF082A13D38B07B1D008
:1016180010F00303AED0C3F10403D21ADB071CBFDA
:1016280011F8013B00F8013BA4D331F8023B20F844
:10163800023B9FE7043AD9D3013A11F8013B00F87D
:10164800013BF9D20B7803704B7843708B78837029
:101658006046704780EA010C1CF0030F37D110F088
:10166800030C20F0030021F0030150F8042B08BFFD
:1016780051F8043B0ED08CF0030C6FF07F434FEA17
:10168800CC0C23FA0CFC51F8043B42EA0C0243EA66
:101698000C0300BFA2F1013C9A4201BF2CEA020CE4
:1016A8001CF0803F50F8042B51F8043BF2D04FEA6D
:1016B80002604FEA1222012828BFB0EB036F08BF6F
:1016C8001B0AF4D003F0FF03000EC01A704710F095
:1016D800030F0AD010F8012B11F8013B012A28BF8B
:1016E8009A42F4D0A2EB030070474DF8045D50F81D
:1016F800042B01F0030521F0030151F8043B022DEE
:1017080026D04DD822F07F45B5EB132FA2F1013C2E
:101718002CEA020C0DD11CF0803C08BF51F8043BA8
:101728000AD185EA0205B5EB036F0CD150F8042BFA
:10173800E8E74FEA13235BE03CF07F4C54D10B7889
:101748004FEA126554E04FEA126503F0FF034FE0D9
:101758004FEA0245A2F1013C4FEA15452CEA020C7A
:10176800B5EB134F18D11CF0803C08BF51F8043B6F
:1017780007D185EA0205B5EB034F09D150F8042BD0
:10178800E6E75FEA0C4C2FD10B884FEA12452FE0B1
:101798004FEA03434FEA12454FEA134328E000BFDC
:1017A80002F0FF05B5EB136FA2F1013C2CEA020C25
:1017B8000DD11CF0803C08BF51F8043B0AD185EAE2
:1017C8000205B5EB032F0AD150F8042BE8E74FEADE
:1017D80013630DE012F0FF0F06D051F8043B4FEAF7
:1017E800122523F07F4303E04FF0000020BC704730
:1017F80005F0FF0203F0FF00012828BF904204BF54
:101808002D0A1B0AF4D0A2EB000020BC704700BFD1
:101818004FEA410C7FEA6C5C02D150EA013C0AD1E4
:101828004FEA430C7FEA6C5C02D152EA033C02D1D6
:101838004FF0000070474FF00100704753B94AB9A4
:10184800002908BF00281CBF4FF0FF314FF0FF30C0
:10185800FFF788BEADF1080C6DE904CEFFF718FD5F
:10186800DDF804E0DDE9022304B07047F0B58BB081
:1018780000240694079408940994364B9A6942F018
:1018880004029A619A6902F004020092009A9A6925
:1018980042F040029A619A6902F040020192019A6C
:1018A8009A6942F008029A619A6902F00802029263
:1018B800029A9A6942F020029A619A6902F020021B
:1018C8000392039A9A6942F480729A619A6902F4BF
:1018D80080720492049A9A6942F010029A619B6994
:1018E80003F010030593059B1B4E22464FF46851E5
:1018F800304601F0D9FC194D01223021284601F06B
:10190800D3FC4FF4807306930794089406A93046D5
:1019180001F0AAFB4FF46853069301270797089430
:101928000223099306A9304601F09EFB3023069353
:10193800079708940323099306A9284601F094FB06
:10194800402306930794089406A9284601F08CFBC7
:101958000BB0F0BD0010024000140140002001400F
:1019680008B50B480B4B03600B4B436000238360A7
:10197800C3604FF48042026143618361C3610362C3
:1019880001F022FF00B908BD00F000FAFBE700BF34
:10199800DC0A002000540040A086010010B586B083
:1019A800002302930393049305930268154B9A420C
:1019B80001D006B010BD144CA36943F00803A3611D
:1019C800A36903F008030093009B4FF4407302934C
:1019D800122303930323059302A90C4801F044FB47
:1019E8000B4A536843F0E06343F002035360E36932
:1019F80043F40013E361E36903F400130193019BCB
:101A0800D7E700BF0054004000100240000C01401E
:101A180000000140F8B502682A4B1B689A4200D0C2
:101A2800F8BD06F07BFC284F388006F07FFC274E77
:101A3800308006F083FC264D288006F087FC254C74
:101A4800208006F0A3FC244AB7F900001368516807
:101A58001B1841EBE07113605160204AB6F9000091
:101A6800136851681B1841EBE071136051601C4A00
:101A7800B5F90000136851681B1841EBE071136059
:101A88005160184AB4F90000136851681B1841EBFB
:101A9800E0711360516006F011FA134B1868FEF7F5
:101AA80023FD02460B46114C1149204607F054F914
:101AB800204607F0F7F9642382B221460D4803F067
:101AC8004DFCADE7F40E002040110020421100202B
:101AD8004411002046110020201100202811002068
:101AE8003011002038110020D40C0020900B002069
:101AF800E0170108CC0F002038B50268824B9A42E3
:101B080000D038BD0446814D284607F0CBF9C0F116
:101B18007F027F49284607F0F3F90A21284607F093
:101B28003DF9D8B17B49284607F09EF900232B548C
:101B380002227949284607F011FA50B9284607F0D9
:101B4800B1F9022805D9033874492844FFF782FD02
:101B580050B1802200216D4807F042F801226C49FB
:101B6800204603F044FECCE76D49284607F034FAD6
:101B78004FF0FF3510E006F0D1FF6A4B18606A4A53
:101B8800136851681B1841EBE0711360516001350F
:101B98006349002007F020FA0028DAD0152DD8DC98
:101BA800152DF4D801A353F825F000BF7F1B0008BA
:101BB8000D1C0008271C0008411C00085B1C0008BD
:101BC800651C00086F1C0008791C0008831C0008AD
:101BD8008D1C0008971C0008A11C0008AB1C0008FD
:101BE800B51C0008BF1C0008C91C0008D31C00084D
:101BF800DD1C0008E71C0008F11C0008FB1C00089D
:101C0800051D000806F08AFF484B1860484A13680B
:101C180051681B1841EBE07113605160B7E706F09B
:101C28007DFF444B1860444A136851681B1841EB08
:101C3800E07113605160AAE706F070FF3F4B18602F
:101C48003F4A136851681B1841EBE07113605160FB
:101C58009DE706F063FF3B4B186098E706F05EFFD0
:101C6800394B186093E706F059FF384B18608EE738
:101C780006F054FF364B186089E706F04FFF354BE6
:101C8800186084E706F04AFF334B18607FE706F0D8
:101C980045FF324B18607AE706F040FF304B18607A
:101CA80075E706F03BFF2F4B186070E706F036FF2C
:101CB8002D4B18606BE706F031FF2C4B186066E778
:101CC80006F02CFF2A4B186061E706F027FF294B26
:101CD80018605CE706F022FF274B186057E706F00C
:101CE8001DFF264B186052E706F018FF244B1860BA
:101CF8004DE706F013FF234B186048E706F00EFF88
:101D0800214B186043E700BF00380140440C002015
:101D1800100C00206C180108E8170108EC170108DE
:101D2800F01701088C0B0020300B0020840B0020DA
:101D3800380B0020540B0020400B0020500B0020D3
:101D4800480B0020680B0020700B0020780B002047
:101D5800800B0020880B00207C0B00206C0B0020DF
:101D6800740B0020640B0020600B0020580B00202F
:101D78005C0B0020300C0020340C0020380C0020B4
:101D88003C0C0020CC0C0020D00C002072B6FEE7E2
:101D980000B591B02822002106A806F021FF0023F3
:101DA80001930293039304930593012206924FF43F
:101DB800803307930A9202220D920E934FF4E01398
:101DC8000F9306A802F04AF880B90F230193022165
:101DD8000291002303934FF480620492059301A8B3
:101DE80002F06EFA20B911B05DF804FBFFF7CEFFE0
:101DF800FFF7CCFF80B582B000F0B8FFFFF7C8FF4F
:101E0800FFF734FD00F0A8FD00F036FE00F0EAFA16
:101E180000F01AFB00F04AFB00F07AFB00F0A0FB90
:101E280000F0C4FB00F09CFE00F0B4FE00F024F9C2
:101E380000F044F9FFF794FD01226649664803F073
:101E4800D6FC664802F0C2FC654802F0BFFC654F4C
:101E5800384602F0BBFC644E304602F0B7FC634DD6
:101E6800284602F0B3FC624802F0B0FC614802F078
:101E7800ADFC614C204602F0A9FC3C21384603F039
:101E880081F83C21304603F07DF83C21284603F0D8
:101E980079F83C21204603F075F805F0DBFF06F0E1
:101EA8008DFD002006F0E2FB002006F0EFFB05F0B8
:101EB80081F8002840F083800123009310234F4AC3
:101EC8000021084606F000FD06F006FC4FF4FA7003
:101ED80000F070FF012300931023494A14210020C9
:101EE80006F0F2FC06F0F8FB4FF4FA7000F062FF1F
:101EF80006F028FC434A4449444805F0ADF8444BF1
:101F0800B3F900300093434BB3F90030424AB2F9B9
:101F180000204249B1F90010012006F0BFFD404BF6
:101F2800186806F01BFA01463E4B1B683E4A1268C9
:101F38003E4806F099FA3E4B18603E4B186806F08A
:101F48000DFA01463C4B1B683C4A12683C4806F0B7
:101F58008BFA3C4B18603C4B186806F0FFF90146B9
:101F68003A4B1B683A4A12683A4806F07DFA3A4BEF
:101F780018603A4B186806F0F1F90146384B1B68AF
:101F8800384A1268384806F06FFA384B1860384BF0
:101F98001B68012BAED106F051F91D4BB3F9003087
:101FA80000931C4BB3F900301B4AB2F900201B49BF
:101FB800B1F900104FF0FF3006F070FDEBE7012398
:101FC800009310232B4A0021084606F07DFC06F0FA
:101FD80083FB7BE7C80C0020CC0F00208C0D002071
:101FE800D40D00201C0E0020640E0020AC0E002032
:101FF800F40E00203C0F0020840F0020F417010885
:1020080010180108D40C0020C40C0020400C00203B
:1020180046110020441100204211002040110020E8
:1020280020110020680B0020300B0020C400002085
:102038001011002028110020700B0020380B002000
:10204800D80000201411002030110020780B002047
:10205800400B0020EC00002018110020381100204F
:10206800800B0020480B0020000100201C110020DC
:10207800880B00200418010808B50E480E4B0360B1
:102088004FF48273436000238360C360036143613C
:102098004FF4007282611822C26103624362836254
:1020A8000A23C36202F0E8F900B908BDFFF76EFE23
:1020B800FBE700BFD80C00200030014008B50E48EF
:1020C8000E4B03604FF48273436000238360C36048
:1020D800036143614FF4007282611822C261036296
:1020E800436283620A23C36202F0C6F900B908BDDD
:1020F800FFF74CFEFBE700BF300D00200038004022
:1021080030B589B0002304930593069307930368B9
:10211800304A934204D0304A934229D009B030BDA6
:102128002E4B9A6942F480529A619A6902F480525D
:102138000092009A9A6942F004029A619B6903F03E
:1021480004030193019BA023049302230593032313
:102158000793234C04A9204600F086FF40230493EC
:1021680000230593069304A9204600F07DFFD5E7D8
:102178001A4BDA6942F48042DA61DA6902F4804281
:102188000292029A9A6942F008029A619B6903F0E6
:1021980008030393039B4FF42043049302230593FE
:1021A800032307930F4D04A9284600F05DFF4FF461
:1021B8008043049300240594069404A9284600F05B
:1021C80053FF22462146242000F01AFE242000F066
:1021D8004FFEA3E7003001400038004000100240E5
:1021E80000080140000C014082B00E4B9A6942F091
:1021F80001029A619A6902F001020092009ADA6972
:1022080042F08052DA61DB6903F080530193019B4D
:10221800054A536823F0E06343F00073536002B04B
:10222800704700BF0010024000000140FEE7FEE7D3
:10223800FEE7FEE7FEE770477047704708B500F015
:10224800A7FD08BD08B5024802F001FB08BD00BFA4
:102258008C0D002008B5024802F0F9FA08BD00BF4D
:102268008C0D002008B5024802F0F1FA08BD00BF45
:102278008C0D002008B5024802F0E9FA08BD00BF3D
:102288008C0D002008B5024802F0E1FA08BD00BF35
:10229800D40D002008B5024802F0D9FA08BD00BFE5
:1022A8001C0E002008B5024802F0D1FA08BD00BF94
:1022B800640E002008B5024802F03AF908BD00BFD4
:1022C800300D002008B5024803F032F908BD00BF00
:1022D800CC0F002008B5024803F02AF908BD00BF5A
:1022E8001410002008B5024802F0B1FA08BD00BF7A
:1022F800840F002008B5024802F0A9FA08BD00BF03
:10230800AC0E002008B5024802F0A1FA08BD00BFD3
:10231800F40E002008B5024802F099FA08BD00BF83
:102328003C0F00200120704708B506F0FBFB162380
:1023380003604FF0FF3008BD08B54FF0FF31FFF7DD
:10234800F3FFFEE770B50C461646002506E0AFF32E
:102358000080214601F8010B01350C46B542F6DB39
:10236800304670BD70B50C461646002504E014F8DA
:10237800010BAFF300800135B542F8DB304670BD84
:102388004FF0FF3070474FF400534B600020704708
:10239800012070470020704710B503460C4A0D49CC
:1023A8000D48006840B10C4800680344521A934233
:1023B80006D8094A136010BD0748084C0460F2E7C4
:1023C80006F0B0FB0C2303604FF0FF30F3E700BFCB
:1023D8000000012000040000880D002010160020D5
:1023E8007047000000B58DB02422002103A806F034
:1023F800F7FB0023019302931148124A02604360DD
:10240800836040F2CF72C260036183610323039348
:1024180001230593099303A902F07AFB50B900231D
:102428000193029301A9064802F012FE28B90DB0E3
:102438005DF804FBFFF7AAFCF1E7FFF7A7FCF6E756
:102448001C0E00200004004000B58DB0242200219D
:1024580003A806F0C5FB0023019302931148124A12
:1024680002604360836040F2CF72C260036183619F
:102478000323039301230593099303A902F048FB5F
:1024880050B900230193029301A9064802F0E0FD28
:1024980028B90DB05DF804FBFFF778FCF1E7FFF70A
:1024A80075FCF6E7640E00200008004000B58DB00A
:1024B8002422002103A806F093FB00230193029332
:1024C8001148124A02604360836040F2CF72C260D2
:1024D800036183610323039301230593099303A9EC
:1024E80002F016FB50B900230193029301A9064894
:1024F80002F0AEFD28B90DB05DF804FBFFF746FC0D
:10250800F1E7FFF743FCF6E7AC0E0020000C0040B3
:1025180000B583B00023009301930F480F4A02606F
:1025280047224260836042F20F72C260836102F008
:1025380097FA50B90023009301936946064802F0C0
:1025480087FD28B903B05DF804FBFFF71FFCF1E72E
:10255800FFF71CFCF6E700BFF40E00200010004057
:1025680000B583B00023009301930E480E4A026021
:10257800436083604FF6FF72C260836102F070FAB5
:1025880050B90023009301936946064802F060FDA4
:1025980028B903B05DF804FBFFF7F8FBF1E7FFF794
:1025A800F5FBF6E73C0F00200014004000B58DB0A5
:1025B8002422002103A806F013FB002301930293B1
:1025C8001248134A02604360836040F2CF72C260CF
:1025D80003614361836103230393012305930993F3
:1025E80003A902F095FA50B900230193029301A9B7
:1025F800064802F02DFD28B90DB05DF804FBFFF781
:10260800C5FBF1E7FFF7C2FBF6E700BF840F002028
:102618000034014000B585B003683A4A93420BD0B4
:10262800B3F1804F33D0384A934244D0374A93426B
:1026380054D005B05DF804FB354B9A6942F400624A
:102648009A619B6903F400630093009B00220121B7
:10265800182000F0D5FB182000F00AFC0022012108
:10266800192000F0CDFB192000F002FC0022012106
:102678001A2000F0C5FB1A2000F0FAFB0022012105
:102688001B2000F0BDFB1B2000F0F2FBD1E703F597
:102698000433DA6942F00102DA61DB6903F001030D
:1026A8000193019B002201211C2000F0A9FB1C20A2
:1026B80000F0DEFBBDE7164BDA6942F01002DA6182
:1026C800DB6903F010030293029B002201213620EC
:1026D80000F096FB362000F0CBFBAAE70C4BDA693A
:1026E80042F02002DA61DB6903F020030393039BC5
:1026F80000220121372000F083FB372000F0B8FBCF
:1027080097E700BF002C0140001000400014004073
:102718000010024000B58DB00023089309930A9376
:102728000B9303684F4A93420BD04F4A934233D0DE
:102738004E4A934252D04E4A934271D00DB05DF842
:1027480004FB4C4BDA6942F00202DA61DA6902F002
:1027580002020092009A9A6942F008029A619B6903
:1027680003F008030193019B3023089308A942480A
:1027780000F07AFC414A536823F4406343F0E06375
:1027880043F400635360002201211D2000F038FB50
:102798001D2000F06DFBD1E7364BDA6942F00402E8
:1027A800DA61DA6902F004020292029A9A6942F046
:1027B80008029A619B6903F008030393039BC023F3
:1027C800089308A92C4800F04FFC002201211E2084
:1027D80000F016FB1E2000F04BFBAFE7254BDA6933
:1027E80042F00802DA61DA6902F008020492049AF7
:1027F8009A6942F004029A619B6903F00403059305
:10280800059B0323089308A91D4800F02DFC00220E
:102818000121322000F0F4FA322000F029FB8DE784
:10282800144B9A6942F400529A619A6902F4005270
:102838000692069A9A6942F010029A619B6903F01F
:1028480010030793079BC023089308A90D4800F0BD
:102858000BFC002201212B2000F0D2FA2B2000F0E3
:1028680007FB6BE70004004000080040000C004034
:102878000034014000100240000C014000000140FB
:10288800000801400010014010B588B000230493EF
:102898000593069307930368294A934204D0B3F13A
:1028A800804F1DD008B010BD264B9A6942F04002F7
:1028B8009A619B6903F040030193019B4FF4D44351
:1028C800049302230593079304A91F4800F0CCFB47
:1028D8001E4A536843F0E06343F0C0035360E1E7E6
:1028E80003F504339A6942F004029A619A6902F086
:1028F80004020292029A9A6942F008029A619B695C
:1029080003F008030393039B48F20C030493022487
:102918000594079404A90E4800F0A6FB0823049325
:102928000594079404A90B4800F09EFB074A5368D6
:1029380023F4407343F0E06343F480735360B1E7DA
:10294800002C014000100240001801400000014026
:1029580000080140000C014010B596B00024129404
:102968001394149415941094119409940A940B9444
:102978000C940D940E940F942022214601A806F081
:102988002FF93B483B4B036047234360846040F288
:10299800E733C36004614461846102F061F8002890
:1029A8004BD14FF48053129312A9314802F0BEF96B
:1029B800002845D12E4802F07FF8002843D1002393
:1029C8001093119310A92A4802F042FB00283DD128
:1029D8006023099300220A920B920C920D920E9298
:1029E8000F9209A9224802F027F9002831D10422C0
:1029F80009A91F4802F020F970BB082209A91C4840
:102A080002F01AF958BB0C2209A9194802F014F966
:102A180040BB0023019302930393049305934FF45F
:102A280000520692089301A9114802F04FFBE0B941
:102A38000F48FFF729FF16B010BDFFF7A7F9B0E759
:102A4800FFF7A4F9B6E7FFF7A1F9B8E7FFF79EF992
:102A5800BEE7FFF79BF9CAE7FFF798F9CDE7FFF75D
:102A680095F9D0E7FFF792F9D3E7FFF78FF9DFE79A
:102A78008C0D0020002C014000B58FB000230A9374
:102A88000B930C930D93089309930193029303936B
:102A9800049305930693079330484FF080420260F1
:102AA80047224260836040F2E732C260036183617B
:102AB80001F0D6FF002839D14FF480530A930AA9B0
:102AC800264802F033F9002833D1244801F0F4FFF6
:102AD800002831D100230893099308A91F4802F060
:102AE800B7FA60BB60230193002202920392059219
:102AF80001A91A4802F0A0F820BB04220DEB02013C
:102B0800164802F099F800BB082201A9134802F000
:102B180093F8E8B90C2201A9104802F08DF8D0B951
:102B28000E48FFF7B1FE0FB05DF804FBFFF72EF972
:102B3800C2E7FFF72BF9C8E7FFF728F9CAE7FFF75D
:102B480025F9CFE7FFF722F9D7E7FFF71FF9DBE70A
:102B5800FFF71CF9DEE7FFF719F9E1E7D40D0020CC
:102B680008B50A480A4B03604FF4E1334360002379
:102B78008360C36003610C2242618361C36102F018
:102B8800BDFB00B908BDFFF701F9FBE7CC0F00203A
:102B98000038014008B50A480A4B03604FF4E13396
:102BA800436000238360C36003610C224261836138
:102BB800C36102F0A3FB00B908BDFFF7E7F8FBE724
:102BC800141000200044004030B589B0002304935D
:102BD8000593069307930368384A934204D0384A0A
:102BE800934233D009B030BD364B9A6942F48042E3
:102BF8009A619A6902F480420092009A9A6942F0B6
:102C080004029A619B6903F004030193019B4FF44A
:102C18000073049302230593032307932A4D04A901
:102C2800284600F021FA4FF48063049300240594A9
:102C3800069404A9284600F017FA224621462520C2
:102C480000F0DEF8252000F013F9CBE71D4BDA6918
:102C580042F40032DA61DA6902F400320292029A2E
:102C68009A6942F020029A619B6903F0200303935A
:102C7800039B202304930223059303230793134DF7
:102C880004A9284600F0F0F9402304930024059491
:102C9800069404A9284600F0E7F90D4A536843F062
:102CA800E06343F00803536022462146262000F0E3
:102CB800A7F8262000F0DCF894E700BF00380140B0
:102CC8000044004000100240000801400014014088
:102CD80000000140FFF784FB0B480C490C4A002315
:102CE80002E0D458C4500433C4188C42F9D3094ABA
:102CF800094C002301E013600432A242FBD305F023
:102D080017FFFFF777F8704700000020C00A00207F
:102D1800F4430108C00A002010160020FEE7000056
:102D280010B504460E4B18784FF47A73B3FBF0F3E2
:102D38000C4A1068B0FBF3F000F0A8F868B90F2C43
:102D480001D901200AE0002221464FF0FF3000F0AF
:102D580057F8054B1C60002000E0012010BD00BFA3
:102D680004000020000000200800002008B5074AE1
:102D7800136843F010031360032000F02FF80F20AE
:102D8800FFF7CEFFFFF730FA002008BD0020024011
:102D9800034A1168034B1B780B441360704700BF4C
:102DA8005C10002004000020014B1868704700BF29
:102DB8005C10002038B50446FFF7F6FF0546B4F16D
:102DC800FF3F02D0044B1B781C44FFF7EDFF401B6C
:102DD800A042FAD338BD00BF04000020074AD368D8
:102DE80023F4E0631B041B0C000200F4E0600343BF
:102DF80043F0BF6343F40033D360704700ED00E055
:102E080000B5194BDB68C3F30223C3F1070CBCF10F
:102E1800040F28BF4FF0040C03F1040EBEF1060F97
:102E280018D9033B4FF0FF3E0EFA0CFC21EA0C01C7
:102E380099400EFA03F322EA0303194300280BDB37
:102E48000901C9B200F1604000F5614080F8001343
:102E58005DF804FB0023E5E700F00F000901C9B2A3
:102E6800024B1954F4E700BF00ED00E014ED00E058
:102E7800002807DB00F01F02400901239340024AA3
:102E880042F82030704700BF00E100E00138B0F19F
:102E9800807F0BD24FF0E0235861054AF02182F879
:102EA80023100020986107221A617047012070479B
:102EB80000ED00E090F82130DBB2022B06D00423AD
:102EC8008363002380F8203001207047026813686C
:102ED80023F00E0313600268136823F001031360E4
:102EE800036CC16B012202FA03F34B6080F82120C6
:102EF800002380F8203018467047000008B590F885
:102F08002130DBB2022B03D004238363012008BDE8
:102F18000268136823F00E0313600268136823F035
:102F28000103136003684C4A93424ED9783A93429E
:102F380024D01432934230D0143293422FD014321A
:102F480093422FD0143293422FD0143293422FD071
:102F5800143293422FD002F5627293422ED014326B
:102F680093422DD0143293422CD01432934202D083
:102F78004FF4803203E04FF4805200E00122374BD7
:102F88005A60012380F82130002380F82030436BF9
:102F9800002B5ED098470020B9E71022EFE74FF4E6
:102FA8008072ECE74FF48052E9E74FF48032E6E7AD
:102FB8004FF48012E3E74FF08072E0E70122DEE78A
:102FC8001022DCE74FF48072D9E7254A934224D0D7
:102FD8001432934225D01432934224D014329342AF
:102FE80024D01432934224D01432934224D0143281
:102FF800934224D002F56272934223D01432934252
:1030080022D01432934221D01432934202D04FF48A
:10301800803203E04FF4805200E00122114B5A60E5
:10302800AFE71022FAE74FF48072F7E74FF48052C7
:10303800F4E74FF48032F1E74FF48012EEE74FF0F7
:103048008072EBE70122E9E71022E7E74FF480728C
:10305800E4E700205BE700BF800002400004024074
:10306800080002400000024070B582B00024A44667
:10307800B0E0874DAA4210D007D9864DAA420CD09D
:1030880005F58035AA4208D013E0A5F58015AA42B7
:1030980003D005F57025AA4207D18A68002A62D0B4
:1030A800012A5BD04361082403E0A5F58015AA42F4
:1030B800F3D0BEF1FF0F58D80646BEF1FF0F56D821
:1030C8004FEA8C0233680F25954023EA050304FA7A
:1030D80002F2134333604B6813F0805F78D06E4B75
:1030E8009A6942F001029A619B6903F00103019316
:1030F800019B4FEA9C02951C684B53F825600CF025
:1031080003039D000F23AB4026EA0306644B984255
:1031180033D003F58063984200F0988003F580630C
:10312800984200F0958003F58063984200F0928001
:1031380003F58063984200F08F8003F5806398421E
:1031480019D006231AE0CC68B3E7CC680434B0E79A
:10315800CC680834ADE7CC680C34AAE703610824CE
:10316800A7E70024A5E70424A3E7061DA5E7ACF11B
:1031780008029200A6E7052300E00023AB40334392
:103188000232464D45F822304B6813F4801F65D053
:10319800444A936843EA0E0393604B6813F4001F94
:1031A80062D0404AD36843EA0E03D3604B6813F4F5
:1031B800003F5FD03B4A536843EA0E0353604B68B5
:1031C80013F4803F5CD0374A136843EA0E03136058
:1031D8000CF1010C0A6832FA0CF357D0012303FAF8
:1031E8000CF302EA030E33EA0202F1D14A68122A0A
:1031F8003FF63FAF122A3FF65CAF01A555F822F023
:10320800A33000084F310008593100086B3100081D
:10321800BB300008BB300008BB300008BB300008DA
:10322800BB300008BB300008BB300008BB300008CA
:10323800BB300008BB300008BB300008BB300008BA
:10324800BB300008533100085F310008012395E7BF
:10325800022393E7032391E704238FE7114A936836
:1032680023EA0E03936098E70E4AD36823EA0E0315
:10327800D3609BE70B4A536823EA0E0353609EE72B
:10328800084A136823EA0E031360A1E702B070BD71
:103298000000221000003110001002400000014020
:1032A80000080140000401400AB1016170470904A7
:1032B8000161704703685A6912F4806F01D10020D8
:1032C80070476FF480625A6100230363202280F8FC
:1032D8003D2080F83E30026C42F00402026480F81F
:1032E8003C30012070472DE9F04106460C46174650
:1032F80098463BE0FFF758FD069BC01A404502D8A8
:10330800B8F1000F32D1012D18D033689B6924EA37
:1033180003039BB2B3FA83F35B099F4226D10023D0
:103328003363202286F83D2086F83E30326C42F026
:103338002002326486F83C30012027E033685B695C
:1033480024EA03039BB2B3FA83F35B09E5E7336826
:103358005B6924EA030C1FFA8CFCBCFA8CFC4FEA6C
:103368005C1C674511D1B8F1FF3FC3D1C4F30745D1
:10337800012DECD033689B6924EA030C1FFA8CFCFE
:10338800BCFA8CFC4FEA5C1CEBE70020BDE8F0813E
:103398002DE9F84305460E469046994653E01A68CB
:1033A80042F400721A602B686FF480625A6100233D
:1033B8002B63202285F83D2085F83E302A6C42F0A8
:1033C80004022A6485F83C3001204AE0FFF7ECFC4F
:1033D800A0EB0900404502D8B8F1000F33D1012F06
:1033E80017D02B689B6926EA03039BB2003B18BFE2
:1033F800012343B300232B63202285F83D2085F861
:103408003E302A6C42F020022A6485F83C300120C4
:1034180027E02B685B6926EA03039BB2003B18BFD1
:103428000123E6E72B689C6926EA0404A4B2003C61
:1034380018BF0124A4B12B685A6912F4806FAED169
:10344800B8F1FF3FC2D1C6F30747012FEAD12B6875
:103458005C6926EA0404A4B2003C18BF0124E9E729
:103468000020BDE8F88370B504460D46164623686B
:103478005B6913F0800F21D12046FFF71BFFF8B9D5
:10348800B5F1FF3FF3D0FFF78FFC801BA84201D8AE
:10349800002DECD123685B6913F0800FE7D100237E
:1034A8002363202284F83D2084F83E30226C42F0C9
:1034B8002002226484F83C30012000E0002070BD26
:1034C8000120FCE72DE9F04385B004460D469146FE
:1034D8001F46DDF830800D9E0368196841F480713D
:1034E80019600096434600224FF00111FFF7FBFEDA
:1034F80060B9236805F0FE051D613346424626493A
:103508002046FFF745FF68B1012008E023681B68E3
:1035180013F4807F02D04FF400732364032005B0B6
:10352800BDE8F0830023039323685A6903929B69DB
:103538000393039B324641462046FFF794FF30B978
:10354800012F0FD123685FFA89F61E61E7E7236C24
:10355800042B01D00120E2E72268136843F40073CA
:103568001360F7E723684FEA19221A613246414689
:103578002046FFF778FF20B923685FFA89F61E61B5
:10358800CDE7236C042B01D00120C8E7226813681B
:1035980043F400731360F7E7020001002DE9F047D8
:1035A80084B004460D46164699460C9FDDF83480D3
:1035B8000268136843F4806313600368196841F470
:1035C80080711960CDF800803B4600224FF0011150
:1035D800FFF789FE70B95FFA85FA236805F0FE05E2
:1035E8001D6143463A4641492046FFF7D1FE68B17E
:1035F800012008E023681B6813F4807F02D04FF491
:1036080000732364032004B0BDE8F087002303930C
:1036180023685A6903929B690393039B4246394680
:103628002046FFF720FF80B9B9F1010F18D12368B0
:10363800F6B21E61424639462046FFF714FF68B3CA
:10364800236C042B24D00120DDE7236C042B01D04C
:103658000120D8E72268136843F400731360F7E782
:103668002368320A1A61424639462046FFF7FBFEB4
:1036780018B92368F6B21E61DCE7236C042B01D06D
:103688000120C0E72268136843F400731360F7E76A
:103698002268136843F400731360D4E72268136840
:1036A80043F480731360CDF800803B4600224FF04E
:1036B80001112046FFF717FE68B922684AF0010396
:1036C800136143463A4609492046FFF761FE002840
:1036D80099D0012097E723681B6813F4807F02D0F4
:1036E8004FF40073236403208DE700BF020001003C
:1036F80070B504460D46164623685B6913F0040F3F
:1037080021D12046FFF7D6FDF8B9B5F1FF3FF3D038
:10371800FFF74AFB801BA84201D8002DECD1236893
:103728005B6913F0040FE7D100232363202284F898
:103738003D2084F83E30226C42F02002226484F856
:103748003C30012000E0002070BD0120FCE770B58E
:1037580004460D46164614E06FF010025A61002325
:103768002363202284F83D2084F83E30226C2264B2
:1037780084F83C30012025E023685B6913F0400F92
:1037880010D02368586910F0400F1AD1586910F00A
:10379800100FE1D1FFF708FB801BA842ECD8002DE1
:1037A800EFD1E9E700232363202284F83D2084F841
:1037B8003E30226C42F02002226484F83C30012022
:1037C80000E0002070BD0000002800F0CC8070B53B
:1037D800044690F83D30002B77D0242384F83D3000
:1037E8002268136823F0010313602268136843F406
:1037F800004313602268136823F40043136000F049
:103808001BFE62685A4B9A4264D85A4B98428CBF46
:1038180000230123002B40F0A8805749A1FB003169
:103828008B0C25686A6822F03F0242EA91426A607E
:1038380021680A6A22F03F0266684D4DAE424FD8B1
:10384800013313430B622168CA6922F44F4222F004
:10385800FF026668464B9E424CD8431E7600B3FB77
:10386800F6F3013340F6FC70034278D0C3F30B0340
:103878001343CB6121680B6823F0C003E269206A17
:10388800024313430B6021688B6823F4034323F03E
:10389800FF032269E068024313438B602168CB6809
:1038A80023F0FF036269A06902431343CB602268D7
:1038B800136843F00103136000202064202384F878
:1038C8003D30206384F83E0070BD80F83C30FEF740
:1038D80065F882E7294B98428CBF0023012399E7BA
:1038E8004FF4967505FB03F3254DA5FB03539B0980
:1038F8000133A6E7A368BBB9451E06EB460CB5FB2A
:10390800FCF50135C5F30B05B5FA85F56D0945BB21
:10391800C3B9013806EB4603B0FBF3F30133C3F335
:103928000B0343F40043A3E7451E06EB860C0CEBA0
:103938008C0CB5FBFCF50135C5F30B05B5FA85F51F
:103948006D09E4E7013806EB860303EB8303B0FB5C
:10395800F3F30133C3F30B0343F4404388E7042331
:1039680086E7012384E7012070470120ACE700BF08
:10397800A08601007F841E0083DE1B43FF083D00F4
:10398800D34D62102DE9F04383B004460F469046AC
:1039980099460C9EFFF708FA054694F83D00C0B218
:1039A800202803D0022003B0BDE8F0830095192336
:1039B80001224B492046FFF796FC002840F08980F9
:1039C80094F83C30012B00F08680012384F83C30C9
:1039D80023681A6812F0010F03D11A6842F0010235
:1039E8001A602268136823F400631360212384F8A3
:1039F8003D30402384F83E30002323640A9B6362F1
:103A0800BDF82C306385638D2385364BE3620195C1
:103A180000964B46424639462046FFF753FD00289C
:103A28005BD1238D002B35D02A4631462046FFF73F
:103A38001AFD20BB626A236812781A61626A531CF5
:103A48006362218D013989B22185638D9BB2013B67
:103A58009BB263852368586910F0040FE1D00029F0
:103A6800DFD052781A61636A01336362238D013BA8
:103A78002385638D9BB2013B9BB26385D1E7236CA1
:103A8800042B01D001208EE72268136843F40073E9
:103A98001360F7E72A4631462046FFF729FE50B162
:103AA800236C042B01D001207DE72268136843F4BE
:103AB80000731360F7E72268136843F40073136018
:103AC800202384F83D30002384F83E3084F83C30CD
:103AD80069E7022067E7022065E7012063E700BF86
:103AE800020010000000FFFF2DE9F04389B00446F2
:103AF8000F4690469946129E00230793FFF754F904
:103B0800054694F83D00C0B2202804D00227384664
:103B180009B0BDE8F08300951923012281492046A8
:103B2800FFF7E1FB002840F0728194F83C30012B4C
:103B380000F06F81012384F83C3023681A6812F082
:103B4800010F03D11A6842F001021A602268136853
:103B580023F400631360222384F83D30402384F863
:103B68003E3000232364109B6362BDF844306385B4
:103B7800638D23856C4BE362019500964B46424664
:103B880039462046FFF70AFD0746002840F04381E2
:103B9800238D5BB9039323685A6903929A69039248
:103BA800039A1A6842F400721A60EDE0012B0FD0F4
:103BB800022B21D02268136843F48063136000232A
:103BC800069323685A6906929B690693069BDBE075
:103BD8002268136823F48063136072B60023049389
:103BE80023685A6904929A690492049A1A6842F4FA
:103BF80000721A6062B6C7E02268136843F4006373
:103C0800136072B60023059323685A6905929A696E
:103C18000592059A1A6822F480621A6062B6B3E0C7
:103C28002A4631462046FFF792FD002840F0F580ED
:103C380023681A69636A1A70636A01336362238DA1
:103C4800013B2385638D9BB2013B9BB263859BE05F
:103C580000953346002235492046FFF744FB0028EB
:103C680040F0DF802268136823F48063136072B623
:103C780023681A69636A1A70636A01336362238D61
:103C8800013B2385638D9BB2013B9BB26385284B27
:103C98001B68DB08274AA2FB03231B0A03EB8303E9
:103CA800C3EBC3030793079B013B0793079B002BB9
:103CB80028D023685A6912F0040FF4D01A6842F425
:103CC80000721A6023681A69636A1A70636A01339A
:103CD8006362238D013B2385638D9BB2013B9BB2BD
:103CE800638562B623681A69636A1A70636A013366
:103CF8006362238D013B2385638D9BB2013B9BB29D
:103D0800638541E02363202284F83D2084F83E3017
:103D1800226C42F02002226462B684F83C3001270B
:103D2800F5E600BF020010000000FFFF04000100DC
:103D38000000002089B5F8142A4631462046FFF7CE
:103D480006FD00286FD123681A69636A1A70626ACF
:103D5800531C6362238D013B2385638D9BB2013B1A
:103D68009BB263852368596911F0040F0CD01B6955
:103D78005370636A01336362238D013B2385638D2E
:103D88009BB2013B9BB26385238D002B36D0032B5E
:103D9800D2D8012B3FF444AF022B7FF459AF0095E2
:103DA8003346002221492046FFF79DFA002836D1E4
:103DB80072B62268136843F40073136023681A69A3
:103DC800636A1A70636A01336362238D013B23853A
:103DD800638D9BB2013B9BB2638562B623681A6907
:103DE800636A1A70636A01336362238D013B23851A
:103DF800638D9BB2013B9BB26385C5E7202384F8A2
:103E08003D30002384F83E3084F83C307FE60227BA
:103E18007DE602277BE6012779E6012777E6012779
:103E280075E6012773E6012771E600BF040001006B
:103E380082B0084B1B68084AA2FB03235B0A00FBFD
:103E480003F3019300BF019B5A1E0192002BF9D185
:103E580002B0704700000020D34D6210002800F027
:103E6800F18170B582B00446036813F0010F2CD0BD
:103E7800994B5B6803F00C03042B1DD0964B5B68D1
:103E880003F00C03082B12D06368B3F5803F41D0D0
:103E9800002B55D103F1804303F504331A6822F44B
:103EA80080321A601A6822F480221A6037E08A4B3E
:103EB8005B6813F4803FE7D0874B1B6813F4003F1F
:103EC80003D06368002B00F0BF81236813F0020F52
:103ED80075D0814B5B6813F00C0F5FD07E4B5B682D
:103EE80003F00C03082B54D02369002B00F08A80C0
:103EF8007A4B01221A60FEF757FF0546764B1B687E
:103F080013F0020F75D1FEF74FFF401B0228F5D9B9
:103F180003209EE1704A136843F48033136063689A
:103F280043B3FEF741FF05466B4B1B6813F4003F94
:103F3800CBD1FEF739FF401B6428F5D9032088E16F
:103F4800B3F5A02F09D0644B1A6822F480321A60A6
:103F58001A6822F480221A60E1E703F18043A3F58E
:103F68003C331A6842F480221A601A6842F480329C
:103F78001A60D4E7FEF718FF0546574B1B6813F481
:103F8800003FA2D0FEF710FF401B6428F5D903209C
:103F98005FE1514B5B6813F4803FA5D14E4B1B6822
:103FA80013F0020F03D02369012B40F04F814A4AD6
:103FB800136823F0F803616943EAC10313602368B7
:103FC80013F0080F33D0A369002B5CD0434B0122B8
:103FD800C3F88024FEF7E8FE05463F4B5B6A13F002
:103FE800020F21D1FEF7E0FE401B0228F5D903207D
:103FF8002FE1394A136823F0F803616943EAC103E2
:104008001360DCE7354B00221A60FEF7CDFE05464B
:10401800314B1B6813F0020FD1D0FEF7C5FE401BD1
:104028000228F5D9032014E10120FFF701FF2368D6
:1040380013F0040F00F09680274BDB6913F0805FC4
:1040480034D1254BDA6942F08052DA61DB6903F03A
:1040580080530193019B0125214B1B6813F4807F3A
:1040680026D0E368012B3DD0002B53D103F18043C8
:1040780003F504331A6A22F001021A621A6A22F05E
:1040880004021A6233E0154B0022C3F88024FEF7BD
:104098008BFE0546104B5B6A13F0020FC7D0FEF784
:1040A80083FE401B0228F5D90320D2E00025D3E780
:1040B8000B4A136843F480731360FEF775FE0646D7
:1040C800074B1B6813F4807FCBD1FEF76DFE801B76
:1040D8006428F5D90320BCE00010024000004242E9
:1040E800007000405F4A136A43F001031362E368FB
:1040F80033B3FEF759FE06465A4B1B6A13F0020FFC
:104108002FD1FEF751FE801B41F288339842F3D934
:1041180003209EE0052B09D0524B1A6A22F00102B7
:104128001A621A6A22F004021A62E0E74D4B1A6A10
:1041380042F004021A621A6A42F001021A62D6E7D1
:10414800FEF732FE0646474B1B6A13F0020F08D0F3
:10415800FEF72AFE801B41F288339842F3D90320E8
:1041680077E0E5B9E369002B72D03E4A526802F065
:104178000C02082A56D0022B17D03B4B00221A6695
:10418800FEF712FE0446374B1B6813F0007F47D03A
:10419800FEF70AFE001B0228F5D9032059E0314A30
:1041A800D36923F08053D361DCE72F4B00221A66D2
:1041B800FEF7FAFD05462B4B1B6813F0007F06D06F
:1041C800FEF7F2FD401B0228F5D9032041E0236ADF
:1041D800B3F5803F1AD023494B6823F47413226A3D
:1041E800606A024313434B601F4B01221A66FEF7B5
:1041F800DBFD04461B4B1B6813F0007F0ED1FEF756
:10420800D3FD001B0228F5D9032022E0154A536884
:1042180023F40033A1680B435360DCE7002018E067
:10422800002016E0012B16D00E4B5B6803F480319A
:10423800226A914211D103F47013626A93420ED13B
:10424800002006E001207047012002E0012000E084
:10425800002002B070BD0120FBE70120F9E7012032
:10426800F7E700BF00100240000042420F4B5B68B6
:1042780003F00C02082A01D00D487047C3F38342AB
:104288000C49885C13F4803F0BD0084B5B68C3F380
:104298004043094AD35C064A02FB00F0B0FBF3F046
:1042A8007047064B03FB00F0704700BF0010024048
:1042B80000127A00341801084418010800093D006A
:1042C800002800F0A08070B50D460446524B1B68CC
:1042D80003F007038B420BD24F4A136823F00703FE
:1042E8000B431360136803F007038B4240F08D8083
:1042F800236813F0020F17D013F0040F04D0474AB5
:10430800536843F4E0635360236813F0080F04D044
:10431800424A536843F460535360404A536823F059
:10432800F003A1680B435360236813F0010F31D0E9
:104338006368012B20D0022B25D0384A126812F06E
:10434800020F64D035494A6822F0030213434B60D8
:10435800FEF72AFD0646314B5B6803F00C036268E2
:10436800B3EB820F16D0FEF71FFD801B41F2883396
:104378009842F0D9032045E0284A126812F4003F19
:10438800E0D101203EE0254A126812F0007FD9D121
:10439800012037E0204B1B6803F00703AB420AD922
:1043A8001D4A136823F007032B431360136803F0B7
:1043B8000703AB422DD1236813F0040F06D0174A28
:1043C800536823F4E063E1680B435360236813F0F8
:1043D800080F07D0114A536823F46053216943EA50
:1043E800C1035360FFF742FF0C4B5B68C3F3031331
:1043F8000B4AD35CD8400B4B18600B4B1868FEF780
:104408008FFC002070BD012070470120FAE70120D1
:10441800F8E70120F6E700BF002002400010024044
:104428001C1801080000002008000020014B186833
:10443800704700BF0000002008B5FFF7F7FF044BE6
:104448005B68C3F30223034AD35CD84008BD00BFAE
:10445800001002402C18010808B5FFF7E7FF044BCD
:104468005B68C3F3C223034AD35CD84008BD00BFCE
:10447800001002402C180108002856D010B5044638
:10448800436A33B94368B3F5827F05D00023C3611B
:1044980002E00023036143610023A36294F85130D2
:1044A800002B3CD0022384F851302268136823F093
:1044B80040031360636803F48273A26802F4044241
:1044C8001343E26802F400621343226902F0020215
:1044D8001343626902F001021343A26902F40072F5
:1044E8001343E26902F038021343226A02F08002A1
:1044F8001343A26A02F40052216813430B60638BD2
:10450800226803F0040353602268D36923F400632C
:10451800D36100206065012384F8513010BD84F810
:1045280050302046FDF7ECFDBCE70120704770478E
:1045380030B585B00446026851689368C3F38010AB
:1045480013F0400F05D113F0010F02D011F0400F06
:104558005AD113F0020F02D011F0800F58D1C3F3D3
:10456800401513F0200F01D1002854D011F0200F6E
:1045780051D078B194F85130DBB2032B4DD0636D34
:1045880043F00403636500230193D36801939368A0
:104598000193019B65B1636D43F0010363650023DB
:1045A800039393680393136823F040031360039BFA
:1045B800636D002B2FD02268536823F0E00353600B
:1045C800012384F8513011F0030F2ED0226853686C
:1045D80023F003035360E36C4BB1164A5A63E06C53
:1045E800FEF78CFC18B1636D43F040036365A36C60
:1045F8008BB1104A5A63A06CFEF780FC58B1636D0A
:1046080043F04003636506E0236C2046984702E0C8
:10461800636C2046984705B030BD00230293D368E9
:10462800029393680293029BF5E72046FFF77FFF0A
:10463800F1E700BF4146000808B5406A0023C38778
:10464800C386FFF774FF08BD30B4036A026A22F01C
:10465800010202624268846924F073040D682C43E5
:1046680023F0020C8B6843EA0C03104DA84203D0D8
:1046780005F50065A84205D123F00803CD682B4352
:1046880023F00403094DA84203D005F50065A842AC
:1046980005D122F440724D692A438D692A4342604C
:1046A80084614A684263036230BC7047002C014051
:1046B80030B4036A026A22F4807202624268C469F2
:1046C80024F0730C0C6844EA0C0523F400738C681E
:1046D80043EA0423114CA04203D004F50064A0422D
:1046E80006D123F40063CC6843EA042323F48063EF
:1046F8000A4CA04203D004F50064A04207D122F47A
:1047080040524C6942EA04128C6942EA041242603F
:10471800C5614A68C263036230BC7047002C01401F
:1047280030B4036A026A22F4805202624468C269A1
:1047380022F4E6420D6842EA052223F400538D680C
:1047480043EA0533094DA84203D005F50065A842A0
:1047580004D124F480444D6944EA85144460C2615C
:104768004A680264036230BC704700BF002C0140F5
:1047780010B4036A046A24F001040462846924F012
:10478800F00C4CEA021223F00A030B438261036225
:1047980010BC704710B4036A046A24F01004046261
:1047A800846924F4704C4CEA023223F0A00343EAF3
:1047B80001138261036210BC7047836823F07003A1
:1047C8000B4343F0070383607047000090F83D30C7
:1047D800DBB2012B2FD1022380F83D300268D36869
:1047E80043F00103D3600368154A934218D002F5D9
:1047F8000062934214D0B3F1804F11D0A2F59832E1
:1048080093420DD002F58062934209D002F580628E
:10481800934205D01A6842F001021A6000207047DE
:104828009A6802F00702062A07D01A6842F00102C5
:104838001A6000207047012070470020704700BFB1
:10484800002C01407047704770477047704710B59B
:10485800044603681A6912F0020F11D0DA6812F0E0
:10486800020F0DD06FF002021A610123037703686B
:104878009B6913F0030F70D0FFF7E6FF002323773F
:1048880023681A6912F0040F12D0DA6812F0040FC4
:104898000ED06FF004021A610223237723689B6904
:1048A80013F4407F5FD02046FFF7CEFF0023237725
:1048B80023681A6912F0080F12D0DA6812F0080F8C
:1048C8000ED06FF008021A61042323772368DB698E
:1048D80013F0030F4ED02046FFF7B6FF00232377CF
:1048E80023681A6912F0100F12D0DA6812F0100F4C
:1048F8000ED06FF010021A61082323772368DB6952
:1049080013F4407F3DD02046FFF79EFF0023237716
:1049180023681A6912F0010F03D0DA6812F0010F48
:1049280036D123681A6912F0800F03D0DA6812F0C2
:10493800800F34D123681A6912F0400F03D0DA6867
:1049480012F0400F32D123681A6912F0200F03D0F9
:10495800DA6812F0200F30D110BDFFF774FF20463F
:10496800FFF773FF8AE72046FFF76DFF2046FFF742
:104978006CFF9BE72046FFF766FF2046FFF765FFC1
:10498800ACE72046FFF75FFF2046FFF75EFFBDE775
:104998006FF001021A612046FDF73CF8C1E76FF09D
:1049A80080021A61204600F0BBFBC3E76FF04002AB
:1049B8001A612046FFF74AFFC5E76FF020021A6127
:1049C800204600F0ACFBC7E70368244A904212D0A7
:1049D80002F5006290420ED0B0F1804F0BD0A2F5E4
:1049E8009832904207D002F58062904203D002F5D7
:1049F8008062904203D123F070034A681343174A38
:104A0800904212D002F5006290420ED0B0F1804F71
:104A18000BD0A2F59832904207D002F580629042FE
:104A280003D002F58062904203D123F44073CA6830
:104A3800134323F080034A69134303608B68C362FE
:104A48000B688362054B984203D003F500639842D4
:104A580001D10B690363012343617047002C0140B6
:104A680040B310B5044690F83D30F3B1022384F802
:104A78003D30214651F8040BFFF7A6FF012384F8C7
:104A8800463084F83E3084F83F3084F8403084F86B
:104A9800413084F8423084F8433084F8443084F854
:104AA800453084F83D30002010BD80F83C30FDF7DB
:104AB800B1FDDBE70120704740B310B5044690F81C
:104AC8003D30F3B1022384F83D30214651F8040B00
:104AD800FFF77AFF012384F8463084F83E3084F8E3
:104AE8003F3084F8403084F8413084F8423084F80C
:104AF800433084F8443084F8453084F83D30002051
:104B080010BD80F83C30FFF79DFEDBE701207047C1
:104B1800002857D070B50D46044690F83D30002B5C
:104B28004BD0022384F83D302268936823F48043F5
:104B380023F007039360214651F8040BFFF744FF65
:104B480021688A688B690E6A2868104323F4407CC0
:104B58002CF0030CAA68AB6942EA032343EA0C036E
:104B680023F47C4323F0FC03EA69D5F80CC04CEA33
:104B7800022C4CEA030C2A6A13032A6943EA02133B
:104B880043EA0C0326F022066A686D6942EA0512B8
:104B98003243886021688B6123681A62012384F894
:104BA800463084F83E3084F83F3084F8423084F848
:104BB800433084F83D30002070BD80F83C30FDF76C
:104BC800A9FDAEE70120704730B4036A026A22F0FB
:104BD800100202624468826922F4E6420D6842EAE1
:104BE800052223F020038D6843EA0513114DA842DE
:104BF80003D005F50065A84206D123F08003CD68EF
:104C080043EA051323F040030A4DA84203D005F5F3
:104C18000065A84207D124F440644D6944EA85043C
:104C28008D6944EA8504446082614A68826303624C
:104C380030BC7047002C014038B590F83C30012B4F
:104C480066D004460D46012380F83C300C2A5AD819
:104C5800DFE802F0075959591B5959593059595920
:104C680044000068FFF7F0FC2268936943F00803EA
:104C780093612268936923F004039361226893691E
:104C880029690B43936100203EE00068FFF79CFF11
:104C98002268936943F4006393612268936923F45B
:104CA8008063936122689369296943EA01239361C8
:104CB800002029E00068FFF7FBFC2268D36943F075
:104CC8000803D3612268D36923F00403D3612268FF
:104CD800D36929690B43D361002015E00068FFF709
:104CE8001FFD2268D36943F40063D3612268D36946
:104CF80023F48063D3612268D369296943EA0123D5
:104D0800D361002000E00120002384F83C3038BD46
:104D18000220FCE710B4846824F47F4C42EA0322A2
:104D28000A4342EA0C02826010BC704790F83C309B
:104D3800012B78D010B50446012380F83C300223BB
:104D480080F83D300268936823F47F4323F07703AB
:104D580093600B68602B4CD029D8402B54D00CD9C9
:104D6800502B22D1CA6849680068FFF701FD50211D
:104D78002068FFF722FD002005E0202B0DD009D97F
:104D8800302B0AD00120012384F83D30002384F819
:104D98003C3010BD0BB1102B05D119462068FFF728
:104DA8000CFD0020EFE70120EDE70120EBE7B3F56C
:104DB800805F34D0B3F5005F0CD1CB684A6889684E
:104DC8000068FFF7A7FF2268936843F48043936065
:104DD8000020D8E7702B24D1CB684A68896800681E
:104DE800FFF798FF2268936843F0770393600020E9
:104DF800C9E7CA6849680068FFF7CCFC60212068E9
:104E0800FFF7DBFC0020BEE7CA6849680068FFF7C7
:104E1800AFFC40212068FFF7D0FC0020B3E700205A
:104E2800B1E70120AFE70220704701F01F0101231D
:104E380003FA01FC036A23EA0C030362036A02FA19
:104E480001F10B430362704710B504460846C1B927
:104E580094F83E30DBB2013B18BF0123002B40F031
:104E6800898038BB022384F83E300C2800F2848005
:104E7800DFE800F0308282826382828269828282E5
:104E88006F00042908D008290DD094F84130DBB20E
:104E9800013B18BF0123E1E794F83F30DBB2013B47
:104EA80018BF0123DAE794F84030DBB2013B18BFA2
:104EB8000123D3E7042805D0082807D0022384F863
:104EC8004130D2E7022384F83F30CEE7022384F84A
:104ED8004030CAE72268D36843F00203D360012256
:104EE80001462068FFF7A1FF2368254A934203D0B3
:104EF80002F50062934203D15A6C42F400425A64AC
:104F080023681F4A93422AD002F50062934226D0B2
:104F1800B3F1804F23D0A2F5983293421FD002F507
:104F2800806293421BD002F58062934217D01A68C0
:104F380042F001021A6000201FE02268D36843F0A3
:104F48000403D360CBE72268D36843F00803D36037
:104F5800C5E72268D36843F01003D360BFE79A68B7
:104F680002F00702062A09D01A6842F001021A6004
:104F7800002002E0012000E0012010BD0020FCE735
:104F8800002C014038B5044690F83E00C0B294F8B1
:104F98003F3094F84220D2B294F843C00D46B1B9DC
:104FA800012849D1012A48D1022384F83E3084F8E7
:104FB80042307DB3042D39D0012200212068FFF74B
:104FC80034FF012204212068FFF72FFF27E0DBB21E
:104FD8005FFA8CFC042912D0012833D1012B2CD183
:104FE800012A31D1BCF1010F30D1022384F83E30BF
:104FF80084F83F3084F8423084F84330D9E7012BF5
:105008001CD1BCF1010F1BD1022384F83F3084F876
:105018004330CEE7012200212068FFF706FF22680F
:10502800136843F001031360002006E00122042105
:105038002068FFF7FAFEF2E7012038BD0120FCE7FF
:105048001846FAE70120F8E71846F6E71046F4E7AD
:1050580090F83C30012B34D010B4012380F83C3058
:10506800022380F83D3003685A689C6822F0700C6F
:105078000A6842EA0C025A600368134A934212D043
:1050880002F5006293420ED0B3F1804F0BD0A2F527
:105098009832934207D002F58062934203D002F51A
:1050A8008062934204D124F080044A6814439C60CF
:1050B800012380F83D30002380F83C30184610BCAE
:1050C80070470220704700BF002C014090F83C3028
:1050D800012B22D0012380F83C30CB6823F44073A5
:1050E8008A68134323F480634A68134323F40063F4
:1050F8000A68134323F480530A69134323F40053C3
:105108004A69134323F48043CA691343026853640A
:10511800002380F83C3018467047022070477047DB
:105128007047026802F10C0353E8003F23F49073C0
:105138000C3242E800310029F3D1026802F114036D
:1051480053E8003F23F00103143242E800310029FC
:10515800F3D1036B012B05D0202380F842300023C4
:1051680003637047026802F10C0353E8003F23F021
:1051780010030C3242E800310029F3D1ECE790F833
:105188004130DBB2212B01D0022070478368B3F590
:10519800805F17D0036A5A1C02621A7803685A6043
:1051A800C38C9BB2013B9BB2C3844BB90268D368E2
:1051B80023F08003D3600268D36843F04003D360D0
:1051C800002070470369002BE4D1036A1B8802683A
:1051D800C3F308035360036A02330362E0E7000085
:1051E80010B504460268136923F44053C1680B43A1
:1051F800136183680269134342691A430168CB68E3
:1052080023F4B05323F00C031343CB6002685369B3
:1052180023F4407381690B4353610268134B9A422C
:1052280020D0FFF709F9024602EB820202EB820264
:1052380063689B00B2FBF3F20D48A0FB02314909F9
:10524800642303FB11231B013233A0FB03235B09F7
:1052580003F0F00202EB011203F00F03216813447C
:105268008B6010BDFFF7F8F80246DDE70038014013
:105278001F85EB512DE9F84305460F46164699461A
:10528800DDF820802C68246837EA04030CBF4FF04F
:10529800010C4FF0000CB4452DD1B8F1FF3FF1D00F
:1052A800B8F1000F05D0FDF77FFDA0EB09004045E0
:1052B800E8D92A6802F10C0353E8003F23F4D073BD
:1052C8000C3242E800310029F3D12A6802F11403B4
:1052D80053E8003F23F00103143242E8003100296B
:1052E800F3D1202385F8413085F84230002385F832
:1052F8004030032000E00020BDE8F88360B310B51B
:10530800044690F8413013B3242384F841302268CE
:10531800D36823F40053D3602046FFF761FF226867
:10532800136923F4904313612268536923F02A0315
:1053380053612268D36843F40053D360002060644B
:10534800202384F8413084F84230606310BD80F82F
:105358004030FDF739FCD7E7012070472DE9F041CF
:1053680082B01E4690F84130DBB2202B4BD1044668
:105378000D46904600294AD00AB9012044E000238E
:105388004364212380F84130FDF70EFD0746A4F859
:105398002480A4F82680A368B3F5805F02D04FF07C
:1053A80000080FE02369FBB14FF000080AE038F865
:1053B800023B2268C3F308035360E28C92B2013ABD
:1053C80092B2E284E38C9BB28BB100963B460022FA
:1053D80080212046FFF74EFFD8B9002DE7D015F8F9
:1053E800012B23685A60E8E7A8460025EAE70096FB
:1053F8003B46002240212046FFF73CFF58B92023B6
:1054080084F8413000E0022002B0BDE8F0810120BC
:10541800FAE70320F8E70320F6E7704708B50168C4
:10542800CA6822F04002CA60202280F84120FFF7B3
:10543800F4FF002008BD704708B5406A0023C38503
:10544800C384FFF7F8FF08BD704790F84230DBB21D
:10545800222B69D18368B3F5805F4FD0826AB3F598
:10546800805F04D0002B56D10369002B53D1036809
:105478005B681370836A01338362C38D9BB2013BFF
:105488009BB2C385002B51D100B583B00268D368A5
:1054980023F02003D3600268D36823F48073D360B9
:1054A8000268536923F001035361202380F84230D6
:1054B80000234363036B012B33D10023036302688A
:1054C80002F10C0353E8003F23F010030C3242E8CA
:1054D80000310029F3D103681A6812F0100F06D0C2
:1054E800002201921A6801925B680193019B818DE9
:1054F800FFF7AAFF002003B05DF804FB0269002A49
:10550800ACD1826A03685B68C3F308031380836ABB
:1055180002338362B1E703685B6803F07F031370AB
:10552800A8E7FCF7E9FAE5E7022070470020704792
:1055380030B583B0044602681368D068516913F027
:105548000F0505D113F0200F02D010F0200F19D14C
:105558002DB111F0010119D110F4907F16D1216BF2
:1055680001297DD013F0800F03D010F0800F40F098
:10557800188113F0400F03D010F0400F40F0158150
:1055880003B030BD2046FFF760FFF9E713F0010FC5
:1055980006D010F4807F03D0626C42F0010262648E
:1055A80013F0040F04D019B1626C42F00202626475
:1055B80013F0020F04D019B1626C42F00402626465
:1055C80013F0080F07D010F0200F00D119B1626C4A
:1055D80042F008026264626C002AD1D013F0200FF6
:1055E80002D010F0200F29D123685B6903F0400333
:1055F800626C12F0080F00D163B32046FFF791FDEB
:1056080023685B6913F0400F20D0226802F114036D
:1056180053E8003F23F04003143242E800310029E8
:10562800F3D1E36B73B1634A5A63E06BFDF766FC31
:105638000028A5D0E06B436B9847A1E72046FFF709
:1056480004FFD1E72046FFF7F6FE99E72046FFF76B
:10565800F2FE95E72046FFF7EEFE002363648FE72E
:1056680013F0100F3FF47EAF10F0100F3FF47AAF35
:10567800002301931368019353680193019B5369B5
:1056880013F0400F51D0E26B13685B689BB2002B9C
:105698003FF476AFA18D99427FF672AFE3859369A7
:1056A800202B37D0226802F10C0353E8003F23F483
:1056B80080730C3242E800310029F3D1226802F1EC
:1056C800140353E8003F23F00103143242E8003189
:1056D8000029F3D1226802F1140353E8003F23F0B4
:1056E8004003143242E800310029F3D1202384F822
:1056F800423000232363226802F10C0353E8003F81
:1057080023F010030C3242E800310029F3D1E06B9A
:10571800FDF7D0FB02236363A18DE38D9BB2C91A09
:1057280089B22046FFF790FE2AE7A18DE38D9BB250
:10573800C91A89B2E38D9BB2002B3FF421AF00292F
:105748003FF41EAF226802F10C0353E8003F23F434
:1057580090730C3242E800300028F3D1226802F13D
:10576800140353E8003F23F00103143242E80030E9
:105778000028F3D1202384F84230002323632268D1
:1057880002F10C0353E8003F23F010030C3242E807
:1057980000300028F3D1022363632046FFF754FE4C
:1057A800EEE62046FFF7EBFCEAE62046FFF736FE7A
:1057B800E6E600BF4154000881628285C285002365
:1057C8004364222380F84230036923B10268D36816
:1057D80043F48073D3600268536943F00103536153
:1057E8000268D36843F02003D3600020704708B5EF
:1057F80090F84230DBB2202B08D149B10AB9012018
:1058080008BD00230363FFF7D7FFF9E70220F7E796
:105818000120F5E7F0B583B007462C4B586801AB7B
:1058280004220D21007802F003FB00284BD1044626
:105838009DF80420D21002F01C029DF80710C1F355
:1058480001131A438DF800209DF80520D21002F0AC
:105858001C02C1F381031A438DF801209DF806301C
:10586800DB1003F01C0301F003010B438DF8023039
:1058780018E007EB8405164B47F8243004E0154977
:105888002868FBF7A9FA286006F108030DEB030264
:1058980012F8083C013BDBB202F8083C002BEED1C1
:1058A8000134E4B2022C0BD8264604F108036B44F9
:1058B80013F8083C002BDCD1002347F82430EFE72D
:1058C800002003B0F0BD0720FBE700BF1800002050
:1058D8007B14AE3E1D5A843F2DE9F04385B08146C6
:1058E800884601A8FFF796FF00273C460DE02149AE
:1058F8003046FBF70FFC20B91F493046FBF728FC60
:1059080010B10123A3401F430134022C2EDCA50053
:1059180059F8240058F82430C01A0028B8BF40426B
:10592800FBF706FA4FF05E51FBF756FA064605F10B
:1059380010030DEB030555F80C5C00212846FBF716
:10594800DFFB0028D3D129463046FBF7F9FA4FF0A0
:105958007E51FBF737F920F000400849FBF7F8FBC8
:105968000028D1D00123A3401F43CDE7384605B016
:10597800BDE8F0839A99993E3333733F295C0F3E13
:105988002DE9F04182B007468846374B586801AB8D
:1059980003220D21007802F04BFA00285FD19DF810
:1059A800043003F01F038DF804309DF8053003F030
:1059B8001F038DF805309DF8063003F01F038DF89E
:1059C80006300026344626E02849FBF705FA04F19C
:1059D80008030DEB030212F8043C013BDBB202F8AA
:1059E800043C002BF0D101462846FBF7A9FA4FF0FA
:1059F8007E51FBF7E7F820F000401D49FBF7A8FBB4
:105A080040B10123A3401E4304E01A48DFE7012305
:105A1800A3401E430134022C22DC57F8240058F816
:105A28002430C01A0028B8BF4042FBF781F94FF074
:105A38005E51FBF7D1F9054604F108036B4413F8EE
:105A4800043C002BE1D10C49FBF764FB0028DED1B4
:105A58000A492846FBF77CFB0028DBD0D7E7072656
:105A6800304602B0BDE8F0811800002054E3853FBD
:105A7800295C0F3E0000C841000020410000D242CE
:105A880000B583B0234B93F82430CBB1A0B10223E7
:105A98008DF807301F4B586819680DF1070301226C
:105AA800C97B007802F0B2F948BB9DF80720194B72
:105AB8005A7403B05DF804FB00238DF80730E9E75A
:105AC800144B9B7AF3B110B1124B5B7CEBB990B1DC
