:020000040800F2
:1000000000000120F50400080503000807030008AC
:10001000090300080B0300080D030008000000009E
:100020000000000000000000000000000F030008B6
:100030001103000800000000130300081503000866
:100040003D0500083D0500083D0500083D05000888
:100050003D0500083D0500083D0500083D05000878
:100060003D0500083D0500083D0500083D05000868
:100070003D0500083D0500083D0500083D05000858
:100080003D0500083D0500083D0500083D05000848
:100090003D0500083D0500083D0500083D05000838
:1000A0001D0300083D0500083D0500083D0500084A
:1000B0003D0500083D0500083D0500083D05000818
:1000C0003D0500083D0500083D0500083D05000808
:1000D0003D0500083D0500083D0500083D050008F8
:1000E0003D0500083D0500083D0500083D050008E8
:1000F0003D0500083D0500083D0500083D050008D8
:100100003D0500083D0500083D0500083D050008C7
:100110003D0500083D0500083D0500083D050008B7
:100120003D0500083D0500083D0500083D050008A7
:1001300000000000000000000000000000000000BF
:1001400000000000000000000000000000000000AF
:10015000000000000000000000000000000000009F
:10016000000000000000000000000000000000008F
:10017000000000000000000000000000000000007F
:10018000000000000000000000000000000000006F
:10019000000000000000000000000000000000005F
:1001A000000000000000000000000000000000004F
:1001B000000000000000000000000000000000003F
:1001C000000000000000000000000000000000002F
:1001D000000000000000000000000000000000001F
:0401E0005FF8E0F1F3
:1001E40010B5054C237833B9044B13B10448AFF36D
:1001F40000800123237010BD3C0400200000000097
:100204003C18000808B5034B1BB103490348AFF37E
:10021400008008BD00000000400400203C180008D5
:1002240082B00A4B9A6942F040029A619A6902F0DC
:1002340040020092009A9A6942F004029A619B6912
:1002440003F004030193019B02B0704700100240C5
:1002540072B6FEE700B591B02822002106A801F08D
:1002640029FA002301930293039304930593022331
:10027400069301230A9310230B9306A800F04AFB6C
:1002840068B90F2301930021029103910491059110
:1002940001A800F071FD20B911B05DF804FBFFF76F
:1002A400D7FFFFF7D5FF08B500F06EF9FFF7D2FFCF
:1002B400FFF7B6FF00F08CF8FEE7000082B00E4BAB
:1002C4009A6942F001029A619A6902F0010200926D
:1002D400009ADA6942F08052DA61DB6903F08053F4
:1002E4000193019B054A536823F0E06343F00073D4
:1002F400536002B0704700BF00100240000001408C
:10030400FEE7FEE7FEE7FEE7FEE77047704770474B
:1003140008B500F04BF908BD08B5024800F0A9FE85
:1003240008BD00BF580400207047000002680E4B4F
:100334009A4200D0704700B583B003F564439A69CC
:1003440042F400629A619B6903F400630193019B88
:1003540000221146182000F04DF9182000F082F90F
:1003640003B05DF804FB00BF002C014000B587B06A
:10037400002302930393049305930268114B9A425A
:1003840002D007B05DF804FB03F564439A6942F0B8
:1003940040029A619B6903F040030193019B4FF46F
:1003A400D443029302230393059302A9064800F061
:1003B4007BF9064A536843F0E06343F0C00353609B
:1003C400DFE700BF002C014000180140000001409D
:1003D40010B596B0002412941394149415941094A8
:1003E400119409940A940B940C940D940E940F9404
:1003F4002022214601A801F05DF93B483B4B0360F4
:100404003F23436084604FF47A73C36004614461A2
:10041400846100F037FF00284BD14FF480531293CE
:1004240012A9314801F038F8002845D12E4800F0CF
:1004340055FF002843D100231093119310A92A4893
:1004440001F0AAF800283DD16023099300220A9202
:100454000B920C920D920E920F9209A9224800F071
:10046400A1FF002831D1042209A91F4800F09AFFF6
:1004740070BB082209A91C4800F094FF58BB0C2249
:1004840009A9194800F08EFF40BB00230193029391
:100494000393049305934FF400520692089301A921
:1004A400114801F0B7F8E0B90F48FFF75FFF16B045
:1004B40010BDFFF7CDFEB0E7FFF7CAFEB6E7FFF7C2
:1004C400C7FEB8E7FFF7C4FEBEE7FFF7C1FECAE701
:1004D400FFF7BEFECDE7FFF7BBFED0E7FFF7B8FEA0
:1004E400D3E7FFF7B5FEDFE758040020002C0140F6
:1004F400FFF71AFF0B480C490C4A002302E0D458BA
:10050400C4500433C4188C42F9D3094A094C00235B
:1005140001E013600432A242FBD301F0A7F8FFF715
:10052400C2FE7047000000203C0400208818000828
:100534003C040020A8040020FEE7000010B5044697
:100544000E4B18784FF47A73B3FBF0F30C4A10682F
:10055400B0FBF3F000F094F868B90F2C01D9012036
:100564000AE0002221464FF0FF3000F043F8054B2B
:100574001C60002000E0012010BD00BF040000202A
:10058400000000200800002008B5074A136843F063
:1005940010031360032000F01BF80F20FFF7CEFFB9
:1005A400FFF78CFE002008BD00200240034A1168BA
:1005B400034B1B780B441360704700BFA00400205A
:1005C40004000020014B1868704700BFA0040020FD
:1005D400074AD36823F4E0631B041B0C000200F4F5
:1005E400E060034343F0BF6343F40033D3607047D8
:1005F40000ED00E000B5194BDB68C3F30223C3F13F
:10060400070CBCF1040F28BF4FF0040C03F1040ED7
:10061400BEF1060F18D9033B4FF0FF3E0EFA0CFC57
:1006240021EA0C0199400EFA03F322EA0303194369
:1006340000280BDB0901C9B200F1604000F56140FC
:1006440080F800135DF804FB0023E5E700F00F00D9
:100654000901C9B2024B1954F4E700BF00ED00E0F0
:1006640014ED00E0002807DB00F01F02400901231D
:100674009340024A42F82030704700BF00E100E096
:100684000138B0F1807F0BD24FF0E0235861054A66
:10069400F02182F823100020986107221A61704724
:1006A4000120704700ED00E070B582B00024A4463C
:1006B400B0E0874DAA4210D007D9864DAA420CD08B
:1006C40005F58035AA4208D013E0A5F58015AA42A5
:1006D40003D005F57025AA4207D18A68002A62D0A2
:1006E400012A5BD04361082403E0A5F58015AA42E2
:1006F400F3D0BEF1FF0F58D80646BEF1FF0F56D80F
:100704004FEA8C0233680F25954023EA050304FA67
:1007140002F2134333604B6813F0805F78D06E4B62
:100724009A6942F001029A619B6903F00103019303
:10073400019B4FEA9C02951C684B53F825600CF012
:1007440003039D000F23AB4026EA0306644B984243
:1007540033D003F58063984200F0988003F58063FA
:10076400984200F0958003F58063984200F09280EF
:1007740003F58063984200F08F8003F5806398420C
:1007840019D006231AE0CC68B3E7CC680434B0E788
:10079400CC680834ADE7CC680C34AAE703610824BC
:1007A400A7E70024A5E70424A3E7061DA5E7ACF109
:1007B40008029200A6E7052300E00023AB40334380
:1007C4000232464D45F822304B6813F4801F65D041
:1007D400444A936843EA0E0393604B6813F4001F82
:1007E40062D0404AD36843EA0E03D3604B6813F4E3
:1007F400003F5FD03B4A536843EA0E0353604B68A3
:1008040013F4803F5CD0374A136843EA0E03136045
:100814000CF1010C0A6832FA0CF357D0012303FAE5
:100824000CF302EA030E33EA0202F1D14A68122AF7
:100834003FF63FAF122A3FF65CAF01A555F822F010
:10084400DF0600088B07000895070008A7070008C3
:10085400F7060008F7060008F7060008F706000880
:10086400F7060008F7060008F7060008F706000870
:10087400F7060008F7060008F7060008F706000860
:10088400F70600088F0700089B070008012395E777
:10089400022393E7032391E704238FE7114A936824
:1008A40023EA0E03936098E70E4AD36823EA0E0303
:1008B400D3609BE70B4A536823EA0E0353609EE719
:1008C400084A136823EA0E031360A1E702B070BD5F
:1008D400000022100000311000100240000001400E
:1008E400000801400004014082B0084B1B68084A1C
:1008F400A2FB03235B0A00FB03F3019300BF019BEC
:100904005A1E0192002BF9D102B07047000000205A
:10091400D34D6210002800F0F18170B582B0044616
:10092400036813F0010F2CD0994B5B6803F00C03A0
:10093400042B1DD0964B5B6803F00C03082B12D0DC
:100944006368B3F5803F41D0002B55D103F1804358
:1009540003F504331A6822F480321A601A6822F408
:1009640080221A6037E08A4B5B6813F4803FE7D03B
:10097400874B1B6813F4003F03D06368002B00F01F
:10098400BF81236813F0020F75D0814B5B6813F0AD
:100994000C0F5FD07E4B5B6803F00C03082B54D024
:1009A4002369002B00F08A807A4B01221A60FFF73A
:1009B40009FE0546764B1B6813F0020F75D1FFF74D
:1009C40001FE401B0228F5D903209EE1704A1368FA
:1009D40043F480331360636843B3FFF7F3FD0546C4
:1009E4006B4B1B6813F4003FCBD1FFF7EBFD401BAF
:1009F4006428F5D9032088E1B3F5A02F09D0644B0E
:100A04001A6822F480321A601A6822F480221A606A
:100A1400E1E703F18043A3F53C331A6842F48022F2
:100A24001A601A6842F480321A60D4E7FFF7CAFDEC
:100A34000546574B1B6813F4003FA2D0FFF7C2FDD5
:100A4400401B6428F5D903205FE1514B5B6813F424
:100A5400803FA5D14E4B1B6813F0020F03D02369CE
:100A6400012B40F04F814A4A136823F0F80361696F
:100A740043EAC1031360236813F0080F33D0A3695A
:100A8400002B5CD0434B0122C3F88024FFF79AFD6E
:100A940005463F4B5B6A13F0020F21D1FFF792FD2D
:100AA400401B0228F5D903202FE1394A136823F0AB
:100AB400F803616943EAC1031360DCE7354B0022A4
:100AC4001A60FFF77FFD0546314B1B6813F0020FD8
:100AD400D1D0FFF777FD401B0228F5D9032014E19C
:100AE4000120FFF701FF236813F0040F00F0968044
:100AF400274BDB6913F0805F34D1254BDA6942F070
:100B04008052DA61DB6903F080530193019B012574
:100B1400214B1B6813F4807F26D0E368012B3DD062
:100B2400002B53D103F1804303F504331A6A22F0F6
:100B340001021A621A6A22F004021A6233E0154BA7
:100B44000022C3F88024FFF73DFD0546104B5B6A85
:100B540013F0020FC7D0FFF735FD401B0228F5D96B
:100B64000320D2E00025D3E70B4A136843F48073D3
:100B74001360FFF727FD0646074B1B6813F4807FBD
:100B8400CBD1FFF71FFD801B6428F5D90320BCE0FF
:100B94000010024000004242007000405F4A136AA5
:100BA40043F001031362E36833B3FFF70BFD06461A
:100BB4005A4B1B6A13F0020F2FD1FFF703FD801B62
:100BC40041F288339842F3D903209EE0052B09D0E3
:100BD400524B1A6A22F001021A621A6A22F00402C3
:100BE4001A62E0E74D4B1A6A42F004021A621A6A6A
:100BF40042F001021A62D6E7FFF7E4FC0646474BCF
:100C04001B6A13F0020F08D0FFF7DCFC801B41F2D3
:100C140088339842F3D9032077E0E5B9E369002BE0
:100C240072D03E4A526802F00C02082A56D0022BB7
:100C340017D03B4B00221A66FFF7C4FC0446374B1F
:100C44001B6813F0007F47D0FFF7BCFC001B022891
:100C5400F5D9032059E0314AD36923F08053D36195
:100C6400DCE72F4B00221A66FFF7ACFC05462B4B42
:100C74001B6813F0007F06D0FFF7A4FC401B02287A
:100C8400F5D9032041E0236AB3F5803F1AD0234904
:100C94004B6823F47413226A606A024313434B6063
:100CA4001F4B01221A66FFF78DFC04461B4B1B6881
:100CB40013F0007F0ED1FFF785FC001B0228F5D945
:100CC400032022E0154A536823F40033A1680B4340
:100CD4005360DCE7002018E0002016E0012B16D05A
:100CE4000E4B5B6803F48031226A914211D103F404
:100CF4007013626A93420ED1002006E0012070470F
:100D0400012002E0012000E0002002B070BD0120BB
:100D1400FBE70120F9E70120F7E700BF00100240DC
:100D2400000042420F4B5B6803F00C02082A01D01A
:100D34000D487047C3F383420C49885C13F4803F29
:100D44000BD0084B5B68C3F34043094AD35C064AA3
:100D540002FB00F0B0FBF3F07047064B03FB00F01E
:100D6400704700BF0010024000127A0064180008A7
:100D74007418000800093D00002800F0A08070B538
:100D84000D460446524B1B6803F007038B420BD2FB
:100D94004F4A136823F007030B431360136803F0EF
:100DA40007038B4240F08D80236813F0020F17D0A5
:100DB40013F0040F04D0474A536843F4E0635360CC
:100DC400236813F0080F04D0424A536843F4605375
:100DD4005360404A536823F0F003A1680B43536007
:100DE400236813F0010F31D06368012B20D0022B4C
:100DF40025D0384A126812F0020F64D035494A6887
:100E040022F0030213434B60FFF7DCFB0646314B31
:100E14005B6803F00C036268B3EB820F16D0FFF734
:100E2400D1FB801B41F288339842F0D9032045E07E
:100E3400284A126812F4003FE0D101203EE0254A1E
:100E4400126812F0007FD9D1012037E0204B1B68D3
:100E540003F00703AB420AD91D4A136823F00703C2
:100E64002B431360136803F00703AB422DD12368AF
:100E740013F0040F06D0174A536823F4E063E168C3
:100E84000B435360236813F0080F07D0114A5368CB
:100E940023F46053216943EAC1035360FFF742FF1F
:100EA4000C4B5B68C3F303130B4AD35CD8400B4B66
:100EB40018600B4B1868FFF741FB002070BD012040
:100EC40070470120FAE70120F8E70120F6E700BFA8
:100ED40000200240001002405418000800000020C6
:100EE4000800002030B4036A026A22F001020262A0
:100EF4004268846924F073040D682C4323F0020CC7
:100F04008B6843EA0C03104DA84203D005F5006535
:100F1400A84205D123F00803CD682B4323F0040332
:100F2400094DA84203D005F50065A84205D122F475
:100F340040724D692A438D692A43426084614A683C
:100F44004263036230BC7047002C014030B4036A32
:100F5400026A22F4807202624268C46924F0730C4B
:100F64000C6844EA0C0523F400738C6843EA0423F8
:100F7400114CA04203D004F50064A04206D123F42E
:100F84000063CC6843EA042323F480630A4CA04240
:100F940003D004F50064A04207D122F440524C6906
:100FA40042EA04128C6942EA04124260C5614A684A
:100FB400C263036230BC7047002C014030B4036A42
:100FC400026A22F4805202624468C26922F4E64250
:100FD4000D6842EA052223F400538D6843EA053381
:100FE400094DA84203D005F50065A84204D124F4B4
:100FF40080444D6944EA85144460C2614A680264CD
:10100400036230BC704700BF002C014010B4036A77
:10101400046A24F001040462846924F0F00C4CEAAC
:10102400021223F00A030B438261036210BC70476F
:1010340010B4036A046A24F010040462846924F47A
:10104400704C4CEA023223F0A00343EA011382619C
:10105400036210BC7047836823F070030B4343F0B2
:101064000703836070477047704770477047704745
:10107400704710B5044603681A6912F0020F11D0C4
:10108400DA6812F0020F0DD06FF002021A61012328
:10109400037703689B6913F0030F70D0FFF7E6FF33
:1010A4000023237723681A6912F0040F12D0DA6838
:1010B40012F0040F0ED06FF004021A61022323779A
:1010C40023689B6913F4407F5FD02046FFF7CEFF6F
:1010D4000023237723681A6912F0080F12D0DA6804
:1010E40012F0080F0ED06FF008021A610423237760
:1010F4002368DB6913F0030F4ED02046FFF7B6FFD9
:101104000023237723681A6912F0100F12D0DA68CB
:1011140012F0100F0ED06FF010021A61082323771B
:101124002368DB6913F4407F3DD02046FFF79EFF20
:101134000023237723681A6912F0010F03D0DA68B9
:1011440012F0010F36D123681A6912F0800F03D010
:10115400DA6812F0800F34D123681A6912F0400F54
:1011640003D0DA6812F0400F32D123681A6912F002
:10117400200F03D0DA6812F0200F30D110BDFFF732
:1011840074FF2046FFF773FF8AE72046FFF76DFFE1
:101194002046FFF76CFF9BE72046FFF766FF2046DB
:1011A400FFF765FFACE72046FFF75FFF2046FFF738
:1011B4005EFFBDE76FF001021A612046FFF754FF9E
:1011C400C1E76FF080021A61204600F04DFAC3E7D0
:1011D4006FF040021A612046FFF74AFFC5E76FF03F
:1011E40020021A61204600F03EFAC7E70368244A49
:1011F400904212D002F5006290420ED0B0F1804FBE
:101204000BD0A2F59832904207D002F5806290424A
:1012140003D002F58062904203D123F070034A6840
:101224001343174A904212D002F5006290420ED046
:10123400B0F1804F0BD0A2F59832904207D002F55E
:101244008062904203D002F58062904203D123F47D
:101254004073CA68134323F080034A69134303604D
:101264008B68C3620B688362054B984203D003F515
:101274000063984201D10B69036301234361704702
:10128400002C014040B310B5044690F83D30F3B152
:10129400022384F83D30214651F8040BFFF7A6FFE2
:1012A400012384F8463084F83E3084F83F3084F8D3
:1012B400403084F8413084F8423084F8433084F874
:1012C400443084F8453084F83D30002010BD80F867
:1012D4003C30FFF72BF8DBE70120704740B310B533
:1012E400044690F83D30F3B1022384F83D302146A2
:1012F40051F8040BFFF77AFF012384F8463084F891
:101304003E3084F83F3084F8403084F8413084F82B
:10131400423084F8433084F8443084F8453084F80B
:101324003D30002010BD80F83C30FFF79CFEDBE729
:101334000120704730B4036A026A22F0100202628C
:101344004468826922F4E6420D6842EA052223F0E9
:1013540020038D6843EA0513114DA84203D005F517
:101364000065A84206D123F08003CD6843EA051343
:1013740023F040030A4DA84203D005F50065A842B6
:1013840007D124F440644D6944EA85048D6944EA34
:101394008504446082614A688263036230BC70479A
:1013A400002C014038B590F83C30012B66D004463F
:1013B4000D46012380F83C300C2A5AD8DFE802F0AD
:1013C400075959591B5959593059595944000068FA
:1013D400FFF788FD2268936943F00803936122684C
:1013E400936923F0040393612268936929690B4389
:1013F400936100203EE00068FFF79CFF2268936938
:1014040043F4006393612268936923F480639361D6
:1014140022689369296943EA01239361002029E042
:101424000068FFF793FD2268D36943F00803D36192
:101434002268D36923F00403D3612268D36929693C
:101444000B43D361002015E00068FFF7B7FD226865
:10145400D36943F40063D3612268D36923F48063BE
:10146400D3612268D369296943EA0123D361002047
:1014740000E00120002384F83C3038BD0220FCE762
:1014840010B4846824F47F4C42EA03220A4342EAFB
:101494000C02826010BC704790F83C30012B78D06D
:1014A40010B50446012380F83C30022380F83D3017
:1014B4000268936823F47F4323F0770393600B68F7
:1014C400602B4CD029D8402B54D00CD9502B22D18E
:1014D400CA6849680068FFF799FD50212068FFF742
:1014E400BAFD002005E0202B0DD009D9302B0AD0FD
:1014F4000120012384F83D30002384F83C3010BDE2
:101504000BB1102B05D119462068FFF7A4FD00206C
:10151400EFE70120EDE70120EBE7B3F5805F34D07E
:10152400B3F5005F0CD1CB684A6889680068FFF79F
:10153400A7FF2268936843F4804393600020D8E7B0
:10154400702B24D1CB684A6889680068FFF798FF3C
:101554002268936843F0770393600020C9E7CA6860
:1015640049680068FFF764FD60212068FFF773FD98
:101574000020BEE7CA6849680068FFF747FD4021BC
:101584002068FFF768FD0020B3E70020B1E70120E1
:10159400AFE702207047000090F83C30012B34D0B4
:1015A40010B4012380F83C30022380F83D300368F6
:1015B4005A689C6822F0700C0A6842EA0C025A606D
:1015C4000368134A934212D002F5006293420ED08C
:1015D400B3F1804F0BD0A2F59832934207D002F5B5
:1015E4008062934203D002F58062934204D124F0D6
:1015F40080044A6814439C60012380F83D30002332
:1016040080F83C30184610BC70470220704700BF79
:10161400002C014090F83C30012B22D0012380F8AB
:101624003C30CB6823F440738A68134323F480630B
:101634004A68134323F400630A68134323F4805372
:101644000A69134323F400534A69134323F4804380
:10165400CA69134302685364002380F83C30184677
:1016640070470220704770477047000070B50D4EF8
:101674000D4D761BB61006D0002455F8043B0134FA
:101684009847A642F9D1094E094D00F0D5F8761BCA
:10169400B61006D0002455F8043B01349847A642FE
:1016A400F9D170BD7C1800087C1800088418000863
:1016B4007C180008830730B548D0541E002A3FD058
:1016C4000346CAB201E0013C3AD303F8012B9D075B
:1016D400F9D1032C2DD9CDB245EA05250F2C45EAC5
:1016E400054536D9A4F1100222F00F0C03F1200EA7
:1016F400E6444FEA121C03F1100242E9045542E9A0
:10170400025510327245F8D10CF1010214F00C0F9D
:1017140003EB021204F00F0C13D0ACF1040323F01A
:1017240003030433134442F8045B9342FBD10CF0EB
:1017340003042CB1CAB21C4403F8012B9C42FBD114
:1017440030BD64461346002CF4D1F9E70346144631
:10175400BFE71A46A446E0E7024B13B1024800F083
:1017640005B87047000000007D17000800230146FB
:101774001A46184600F01AB838B5084B084D5B1BDA
:101784009C1007D0043B1D44013C55F8043998478C
:10179400002CF9D1BDE8384000F054B8881800088E
:1017A40084180008704700BF704700BF2DE9F04758
:1017B400DFF87CA00646DAF8000098460F4691460A
:1017C400FFF7F0FF1B4B1B68D3F8484124B365684F
:1017D4001F2D26DC5EB96B1C0235DAF8000063604D
:1017E40044F82570FFF7E0FF0020BDE8F0870123EF
:1017F40004EB8501C1F88890D4F88821AB401A43E2
:10180400022EC4F88821C1F80881E4D1D4F88C21CF
:101814001343C4F88C31DEE703F5A674C3F84841DA
:10182400D5E7DAF80000FFF7BFFF4FF0FF30DCE741
:101834003804002078180008F8B500BFF8BC08BCCC
:101844009E467047F8B500BFF8BC08BC9E4670477A
:10185400000000000000000001020304060708095C
:1018640002030405060708090A0B0C0D0E0F1010DD
:08187400010200001000002039
:08187C005D17000809020008D5
:04188400E501000872
:101888000024F40001000000100000000000000027
:1018980000000000FC02002064030020CC030020AC
:1018A8000000000000000000000000000000000030
:1018B8000000000000000000000000000000000020
:1018C8000000000000000000000000000000000010
:1018D8000000000000000000000000000000000000
:1018E80000000000000000000000000000000000F0
:1018F80000000000000000000000000000000000E0
:1019080000000000000000000000000000000000CF
:1019180000000000000000000000000000000000BF
:1019280000000000000000000000000000000000AF
:10193800000000000000000001000000000000009E
:101948000E33CDAB34126DE6ECDE05000B00000063
:10195800000000000000000000000000000000007F
:10196800000000000000000000000000000000006F
:10197800000000000000000000000000000000005F
:10198800000000000000000000000000000000004F
:0C1CB8000000000000000000A404002058
:04000005080004F5F6
:00000001FF
